:020000040800F2
:10000000B09E02209D020008CB260008DF200008D9
:10001000C926000889060008CB2D00080000000052
:100020000000000000000000000000000D2C00088F
:100030008B06000800000000CD2600080F2C0008E9
:10004000B7020008B7020008B7020008B7020008AC
:10005000B7020008B7020008B7020008B70200089C
:10006000B7020008B7020008B7020008B70200088C
:10007000B7020008B7020008B7020008B70200087C
:10008000B7020008B7020008B7020008B70200086C
:10009000B7020008B7020008B7020008B70200085C
:1000A000B7020008B7020008B7020008B70200084C
:1000B000B7020008952C0008B7020008B702000834
:1000C000B7020008B7020008B7020008B70200082C
:1000D000B7020008B7020008B7020008B70200081C
:1000E000B7020008B7020008B7020008B70200080C
:1000F000B7020008B7020008B702000800000000BD
:10010000B7020008B7020008B7020008B7020008EB
:10011000B7020008B7020008B7020008B7020008DB
:10012000B7020008B7020008B7020008B7020008CB
:10013000B7020008B7020008B7020008B7020008BB
:10014000B7020008B7020008B7020008B7020008AB
:10015000B7020008B7020008B7020008B70200089B
:10016000B7020008B7020008B7020008B70200088B
:10017000B7020008B70200080000000000000000FD
:10018000B7020008B7020008B7020008B70200086B
:10019000B7020008B70200080000000000000000DD
:1001A0000000000000000000B7020008B7020008CD
:1001B000B7020008B7020008B702000800F002F812
:1001C00000F05CF80AA090E8000C82448344AAF195
:1001D0000107DA4501D100F051F8AFF2090EBAE893
:1001E0000F0013F0010F18BFFB1A43F0010318476B
:1001F00070B6020090B602000A444FF0000C10F8EE
:10020000013B13F0070408BF10F8014B1D1108BF94
:1002100010F8015B641E05D010F8016B641E01F834
:10022000016BF9D113F0080F1EBF10F8014BAD1C84
:100230000C1B09D16D1E58BF01F801CBFAD505E0A2
:1002400014F8016B01F8016B6D1EF9D59142D6D3FC
:10025000704700000023002400250026103A28BF24
:1002600078C1FBD8520728BF30C148BF0B60704728
:100270001FB526F06BFF1FBD10B510BD00F0D1F902
:100280001146FFF7F5FF22F03BF800F0EFF903B459
:10029000FFF7F2FF03BC00F0BDF9000009488047FA
:1002A00009480047FEE7FEE7FEE7FEE7FEE7FEE758
:1002B000FEE7FEE7FEE7FEE704480549054A064B70
:1002C00070470000852C0008BD010008B03E0220E8
:1002D000B09E0220B05E0220B05E022053EA020C03
:1002E00000F069802DE9F04B4FF00006002B1FBF96
:1002F000B3FA83F503FA05F424FA05F65E4012BF5B
:100300001643B2FA82F502FA05F4C5F120051EBFC4
:1003100022FA05FC44EA0C04203556EA044C4FEA64
:10032000144418BF641C4FF000084FF000099042BD
:1003300071EB030C39D3002919BFB1FA81F701FA27
:1003400007F6B0FA80F700FA07F6C7F120071EBFDC
:1003500020FA07FC46EA0C062037B6FBF4FCA7EBB4
:100360000507103F07F01F0BCBF120060CFA0BFB23
:100370002CFA06F644BFB3460026202FA4BF5E46E3
:100380004FF0000B5BEA060C08BF4FF0010B19EBB6
:100390000B09ABFB027C48EB0608C01B06FB02CC3A
:1003A0000BFB03CC71EB0C01C1E70B460246414647
:1003B0004846BDE8F08B13B54FF000004FF0000148
:1003C000AFF30080BDE81C40704740EA01030246DD
:1003D00030B59B0710D14FF0013400E008C208C9C6
:1003E0001D1B9D4315EAC41FF8D013F0FF0102F84E
:1003F000011B0DD01B0AF8E711F8013B002B02F896
:10040000013B05D011F8013B002B02F8013BF3D171
:1004100030BD10B5431C02E010F8011B71B181071B
:10042000FAD14FF0013202C88C1A8C4314EAC2117F
:10043000F9D0C01A0A0603D0C01E10BDC01A10BDE4
:100440000A0401D0801E10BD0902FCD0401E10BD60
:10045000032A40F2308010F0030C00F0158011F8F0
:10046000013BBCF1020F624498BF11F801CB00F8C8
:10047000013B38BF11F8013BA2F1040298BF00F81C
:1004800001CB38BF00F8013B11F0030300F02580D9
:10049000083AC0F0088051F8043B083A51F804CB00
:1004A000A0E80810F5E7121D5CBF51F8043B40F8C6
:1004B000043BAFF30080D20724BF11F8013B11F8D1
:1004C00001CB48BF11F8012B24BF00F8013B00F815
:1004D00001CB48BF00F8012B704710B5203AC0F09F
:1004E0000B80B1E81850203AA0E81850B1E8185035
:1004F000A0E81850BFF4F5AF5FEA027C24BFB1E872
:100500001850A0E8185044BF18C918C0BDE81040E2
:100510005FEA827C24BF51F8043B40F8043B08BFEB
:100520007047D20728BF31F8023B48BF11F8012BB2
:1005300028BF20F8023B48BF00F8012B70474FF05E
:10054000000200B5134694469646203922BFA0E823
:100550000C50A0E80C50B1F12001BFF4F7AF09072F
:1005600028BFA0E80C5048BF0CC05DF804EB890020
:1005700028BF40F8042B08BF704748BF20F8022B63
:1005800011F0804F18BF00F8012B70474FF0013C6D
:1005900050F8042B51F8043B9A4221D1A2EB0C03F2
:1005A000934313EACC1317D150F8042B51F8043BB2
:1005B0009A4215D1A2EB0C03934313EACC130BD14F
:1005C00050F8042B51F8043B9A4209D1A2EB0C03DA
:1005D000934313EACC13DBD04FF00000704700BF09
:1005E000D01A01BAB1FA81F101F0180122FA01F032
:1005F000CB40C1F12001DBB2C0B2C01A2CFA01F32A
:10060000D11A914311EAC311E6D170477047704780
:100610007047000001491820ABBEFEE7260002002B
:100620007047754600F02CF8AE4605006946534603
:1006300020F00700854618B020B5FFF73DFEBDE865
:1006400020404FF000064FF000074FF000084FF039
:10065000000B21F00701AC46ACE8C009ACE8C009CA
:10066000ACE8C009ACE8C0098D46704710B5044637
:10067000AFF300802046BDE81040FFF708BE000041
:1006800000487047503E0220FEE7704772B6FEE712
:100690002DE9F04FDFF82092002301260325A9F170
:1006A000040B85B00F2709F1040AABF1040EFBE03F
:1006B00006FA03FC12EA0C027ED00C7904F0030463
:1006C000012C01D0022C20D1846800945C0005FA32
:1006D00004F80494009C24EA08040094D1F80C80E7
:1006E000049C08FA04F8009C48EA0408C0F8088052
:1006F000446824EA0C0491F804C0CCF3001C0CFA02
:1007000003FC4CEA040CC0F804C00C79E443A407D1
:100710000ED0C4684FEA430805FA08FC24EA0C042A
:10072000D1F808C00CFA08FC4CEA040CC0F80CC064
:100730000C7904F00304022C15D1DC0800EB8404CE
:100740000294246A4FEA437C4FEADC6807FA08FC0B
:1007500024EA0C04D1F810C00CFA08FC4CEA040C92
:10076000029CC4F820C004684FEA430805FA08FC5C
:1007700024EA0C0491F804C00CF0030C0CFA08FCF9
:100780004CEA040CC0F800C04C6814F4403F13D08D
:100790004A4CD4F860C04CF0010CC4F860C0246E20
:1007A00023F0030C04F001040094454C64440294CB
:1007B000A4684FEA837C00E075E04FEA1C7807FAF2
:1007C00008FC24EA0C04B0F1904F06D0DFF8F4C026
:1007D000604505D14FF0010C2EE04FF0000C2BE0EE
:1007E000DFF8E4C0604502D14FF0020C24E0DFF8EE
:1007F000DCC0604502D14FF0030C1DE0DFF8D0C033
:10080000604502D14FF0040C16E0DFF8C8C0604527
:1008100002D14FF0050C0FE0DFF8BCC0604502D1FB
:100820004FF0060C08E0DFF8B4C0604502D14FF08D
:10083000070C01E04FF0080C0CFA08FC4CEA040C21
:10084000029CC4F808C0D9F80040CC46D1F8048016
:1008500094435FEAC82800D51443CCF80040DAF886
:100860000040D446D1F8048094435FEA882800D53C
:100870001443CCF80040DBF80040DC46D1F804809B
:1008800094435FEA883800D51443CCF80040DEF882
:100890000040F446D1F8048094435FEAC83800D59C
:1008A0001443CCF800405B1C0A6832FA03F47FF46E
:1008B000FFAE05B000F014B808040140001002407B
:1008C000000001400004004800080048000C0048F7
:1008D000001000480014004800180048001C0048A0
:1008E00030BCBDE8C08F0AB181617047816270473A
:1008F00001488068704700000000002090F8412007
:10090000202A24D190F84020012A20D0012280F80A
:100910004020242280F841200268136823F001035C
:1009200013600268136823F480531360026813682D
:100930000B43136001680A6842F001020A6020213B
:1009400080F84110002180F84010084670470220CE
:10095000704790F84120202A22D190F84020012AA7
:100960001ED0012280F84020242280F84120026815
:10097000136823F0010313600268136823F47063A3
:1009800043EA0121116001680A6842F001020A602D
:10099000202180F84110002180F84010084670475F
:1009A0000220704770B5040004D094F8410000257F
:1009B00010B106E0012070BD84F84050204600F0E0
:1009C0004DF8242084F841002068016821F00101DD
:1009D00001606068216820F07060086120688168AB
:1009E00021F400418160E0680128A06807D040F44C
:1009F000044021688860E068022803D006E040F4E3
:100A00000040F6E721684FF40060486020684168C4
:100A1000114A114341602068C16821F40041C1605E
:100A2000D4E904010843A16940EA01202168C860B3
:100A3000D4E907010843216808602068016841F093
:100A4000010101606564202084F84100256384F879
:100A50004250002070BD00000080000230B5ABB0F5
:100A60000446142125A8FFF76AFD94216846FFF784
:100A700066FD1849206888422AD140200025009050
:100A80001595684600F036F908B1FFF7FFFD124CE6
:100A9000E06C40F04000E064E06C00F040002A9020
:100AA00000F00CF94FF4C04025901220CDE9260546
:100AB000032028900420299025A90848FFF7E8FD85
:100AC000A06D40F40010A065A06D00F400102A9005
:100AD0002BB030BD00540040001002400018004808
:100AE000024881680278114481607047000000204C
:100AF00010B50024032000F071F80F2000F008F872
:100B000008B1012401E000F025F8204610BD0000E6
:100B100070B50E4E05460024307898B14FF47A71C6
:100B2000B1FBF0F00A490968B1FBF0F001F09AF866
:100B300040B9102D06D200222946501E00F02EF892
:100B4000756000E00124204670BD00000000002018
:100B50000C000020094808B5016E41F00101016652
:100B6000016E01F001010091816D41F080518165BC
:100B7000806D00F08050009008BD00000010024021
:100B8000002809DB00F01F0201219140400980008C
:100B900000F1E020C0F8001170470000F0B40E4BE7
:100BA0001B680C46C3F30223C3F10705042D00D9CB
:100BB0000425191D072901D2002300E0DB1E0126B0
:100BC00006FA05F1491E214099409E40761E1640C6
:100BD0003143F0BC02F0FAB80CED00E0064900F039
:100BE000070208684FF6FF03184040EA0220034A54
:100BF00010430860704700000CED00E00000FA05AB
:100C00002B492C4B0A6832214A432B4940B1B0F59D
:100C1000007F086829D020F4C06040F480602CE098
:100C20000868C0F34120022804D051F8800F20F456
:100C3000807022E0D1F8800020F48070C1F880003C
:100C4000086820F4C06040F400700860B2FBF3F064
:100C5000401C00E0401E4A69520501D50028F9D128
:100C6000486940050AD503207047C0F34120022897
:100C700006D051F8800F40F4807008600020704763
:100C8000D1F8800040F48070C1F88000086820F43A
:100C9000C06040F400700860B2FBF3F0401C00E05C
:100CA000401E4A695205DBD50028F9D1D8E700007B
:100CB0000C00002040420F000070004002484168D4
:100CC00041F40071416070470070004008480168BD
:100CD000C1F34121022906D0D0F88000C00505D516
:100CE0004FF4007070474FF48060704700207047E9
:100CF000007000402DE9F84F0446002700883E466A
:100D0000010504F12008FE4D1ED5E06E40280AD0F2
:100D100003DC68B1202804D10FE0602821D08028AE
:100D20001FD001270FE0E86840F48030E86018E049
:100D30000021201D01F0CCFC03E00021404601F021
:100D40005BFD07000DD03E462088C0042BD5206FE8
:100D5000B0F5007F16D00DDCC8B1B0F5807F0FD1A3
:100D60001AE0D5F89C00E16E20F0E0000843C5F8D9
:100D70009C00E9E7B0F5407F13D0B0F5806F10D04C
:100D800001270FE0E86840F48030E86009E00021C6
:100D9000201D01F09DFC03E00021404601F02CFDE8
:100DA0000746F7B13E46206880033AD5A86D4FF05C
:100DB0000008C00009D4A86D40F08050A865A86D57
:100DC0004FF0010800F080500090DFF838A3DAF807
:100DD000001041F48071CAF80010FFF789FD8146C8
:100DE00010E0D5F89C00216F20F4E0600843C5F8BE
:100DF0009C00D8E7FFF77CFDA0EB0900022801D991
:100E0000032705E0DAF80000C005F3D5002F7CD0F9
:100E10004FEA0706B8F1000F03D0A86D20F080500C
:100E2000A8652078C00707D0D5F88800E16B20F0CE
:100E300003000843C5F888002078800707D5D5F857
:100E40008800216C20F00C000843C5F88800207849
:100E5000400707D5D5F88800616C20F030000843C2
:100E6000C5F888002078000707D5D5F88800A16C60
:100E700020F0C0000843C5F888002078C00607D5D8
:100E8000D5F88800E16C20F440700843C5F888006C
:100E90002078800607D5D5F88800216D20F44060C1
:100EA0000843C5F888002088800507D5D5F8880054
:100EB000616E20F440200843C5F888002088400572
:100EC00007D5D5F88800A16E20F440100843C5F876
:100ED00088002078400607D5D5F88800616D20F499
:100EE00040500843C5F888002078000607D5D5F89B
:100EF0008800A16D20F440400843C5F88800208890
:100F0000C00509D5D5F8880000E027E0E16D20F4A0
:100F100040300843C5F888002068C00207D5D5F8DE
:100F20009C00216E20F003000843C5F89C00208837
:100F30004FF0006780044FF0806850D5D5F88800E6
:100F4000616F20F040600843C5F88800606FB842C8
:100F50003DD1E86840F48010E86040E0D5F89000AA
:100F600010F4407015D0D4F89010814211D0D5F80B
:100F70009000D5F8901020F4407041F48031C5F80D
:100F80009010D5F8901021F48031C5F89010C5F874
:100F90009000C00711D0FFF7ABFC074641F288393B
:100FA00007E000BFFFF7A4FCC11B494501D9032698
:100FB00030E7D5F890008007F4D5D5F89000D4F844
:100FC000901020F440700843C5F8900022E7404597
:100FD00005D10121201D01F07BFB00B106462068F0
:100FE00000032DD5A06F4FF480418842D5F89C00B6
:100FF00004D140F48040C5F89C000BE020F4804010
:10100000C5F89C00D5F88800A26F20F0406010431E
:10101000C5F88800A06FB84203D1E86840F480109A
:1010200004E0884204D1E86840F48030E86007E0DA
:10103000404505D10121201D01F04AFB00B10646C3
:101040002068400317D5D5F88800E16F20F0406094
:101050000843C5F88800E06FB84204D1E86840F45E
:101060008010E86007E0404505D10121201D01F016
:101070002FFB00B106462088400413D5D5F8880020
:10108000D4F8801020F040500843C5F88800D4F808
:101090008000B0F1805F05D10221201D01F018FB16
:1010A00000B106462068C00308D5D5F89C00D4F8E6
:1010B000841020F004000843C5F89C0020688002DA
:1010C00008D5D5F89C00D4F8881020F01800084303
:1010D000C5F89C002068C00110D5D5F89C0054F8D4
:1010E0008C1F20F440100843C5F89C002068B0F520
:1010F000001F03D1E86840F48010E860304603E048
:10110000001002400070004000F000B818BCBDE8BC
:10111000E08F00002DE9F0470E4605004FF0000774
:101120007ED0DFF87081D8F8000000F00F00B042E8
:101130000CD2D8F8001021F00F013143C8F800108C
:10114000D8F8000000F00F00B0427CD12878524C53
:1011500080070AD5A868A16801F0F001884204D987
:10116000A16821F0F0010143A1602878C00749D0AF
:101170006868DFF82891032810D0022814D00028CE
:10118000206814D0400500285DDA00F08FF848454B
:1011900016D9A06810F0F00F0BD011E02068800184
:1011A00051D501F0BDFBF2E720688003EBE7800733
:1011B000E9E7A06820F0F00040F08000A060802700
:1011C000A068696820F003000843A060FFF790FB67
:1011D000814641F2883A08E0FFF78AFBA0EB09015B
:1011E000514502D90320BDE8F087A068696800F086
:1011F0000C00B0EB810FEFD1802F03D1A06820F05D
:10120000F000A060287880070CD5A868A16801F0DC
:10121000F001884206D2A16821F0F001014300E00C
:1012200011E0A160D8F80010404601F00F01B14272
:101230000BD9016821F00F0131430160006800F013
:101240000F00B04201D00120CDE72878400705D536
:10125000A068E96820F4E0600843A06028780007EF
:1012600006D5A068296920F4605040EAC100A0605A
:1012700000F01CF8A1680A4AC1F30311515C01F0A7
:101280001F01C8400749086007480068BDE8F047EB
:10129000FFF73EBC002002400010024000B4C4042E
:1012A000587102080C0000200400002070B5254988
:1012B000002318468A68CC6812F00C0204F003067A
:1012C000214C4FEA640509D00C2A05D0042A32D0FB
:1012D000082A00D1284670BD012E10D10B681B07CB
:1012E00004D4D1F89430C3F3032302E00B68C3F3B2
:1012F0000313164E56F82330DAB10C2AEBD1C86826
:1013000000F00300022818D0032818D01846CA6835
:10131000CB68C2F30312C3F306234343521CB3FB4F
:10132000F2F2C868C0F34160401C4000B2FBF0F02C
:1013300070BD184670BD204670BD2046E7E72846C0
:10134000E5E70000001002400024F4006871020884
:101350002DE9F84304006FD0FA4DA86800F00C06A0
:10136000E86800F003072078C00664D576B10C2E3B
:1013700001D1012F0AD0A069002828687AD040F056
:1013800001002860FFF7B4FA80465DE02868800716
:1013900002D5A0690028DED0216A2868000703D59D
:1013A000286800F0F00004E0D5F89400F02202EA8A
:1013B0001010814216D9084601F0EAFA00283BD104
:1013C000286840F0080028602868216A20F0F000B2
:1013D000084328606868E16920F47F4040EA012002
:1013E000686016E0286840F0080028602868216AD4
:1013F00020F0F000084328606868E16920F47F402D
:1014000040EA0120686026B9206A01F0C1FA00288C
:10141000D5D1FFF74BFFA968CB4AC1F30311515C4B
:1014200001F01F01C840C9490860C9480068FFF7BA
:101430006FFB00287ED12EE0CAE000BFFFF758FA0C
:10144000A0EB0800022876D828688007F6D528681F
:1014500040F0080028602868216A20F0F000084366
:1014600028606868E16920F47F4040EA01206860F4
:1014700011E0FFE720F001002860FFF739FA80460D
:1014800006E000BFFFF734FAA0EB08000228DAD824
:1014900028688007F6D42078C00740D0082E18D0DE
:1014A0000C2E01D1032F14D06068B0F5803F17D007
:1014B000B0F5A02F286817D020F480302860286865
:1014C00020F4802028606068E0B1FFF711FA8046C0
:1014D00014E02868800322D56068002878D01EE0D8
:1014E000286840F48030EDE740F480202860F7E77A
:1014F000FFF7FEF9A0EB08006428A4D82868800351
:10150000F6D50CE0FFF7F4F9804605E0FFF7F0F9B7
:10151000A0EB0800642896D828688003F6D42078C9
:1015200080073BD5042E11D00C2E01D1022F0DD0F7
:10153000E06801E0AEE1FFE0002828681ED040F43A
:1015400080702860FFF7D4F907460CE02868400552
:101550000CD5E0680028C1D008E000BFFFF7C8F94B
:10156000C01B022893D828684005F7D56868217CFD
:1015700020F0FE4040EA016068600FE020F48070D7
:101580002860FFF7B5F9074605E000BFFFF7B0F99F
:10159000C01B0228B1D828684005F7D4207800077E
:1015A00029D560690028D5F8940012D040F00100D8
:1015B000C5F89400FFF79CF9074604E0FFF798F997
:1015C000C01B022899D8D5F894008007F6D512E000
:1015D0002BE120F00100C5F89400FFF789F90746D8
:1015E00005E000BFFFF784F9C01B022885D8D5F8B5
:1015F00094008007F6D42078400766D5A86D0027B0
:10160000C00008D4A86D40F08050A865A86D0127DF
:1016100000F0805000904F480168C90512D401685D
:10162000814641F480710160FFF762F9804605E070
:10163000FFF75EF9A0EB080002287DD8D9F800007A
:10164000C005F5D5A068012816D00528D5F890006A
:1016500017D020F00100C5F89000D5F8900020F0D8
:10166000040000BFC5F89000A06841F28839C0B1FD
:10167000FFF73EF980460FE0D5F8900040F00100FA
:10168000F0E740F00400C5F89000F5E7FFF730F907
:10169000A0EB080149454FD8D5F890008007F5D553
:1016A0000EE0FFF725F9804606E000BFFFF720F9BE
:1016B000A0EB080149453FD8D5F890008007F5D444
:1016C0001FB1A86D20F08050A8652078800628D52D
:1016D000606A0028D5F8980012D040F00100C5F8E3
:1016E0009800FFF705F9074605E000BFFFF700F98E
:1016F000C01B022820D8D5F898008007F6D510E046
:1017000020F00100C5F89800FFF7F2F8074604E062
:10171000FFF7EEF8C01B02280ED8D5F89800800716
:10172000F6D4A06AF0B3022816D00C2E7DD028681B
:1017300020F08070286000E0ABE0FFF7D9F80446A5
:10174000AAE0000000100240587102080C000020BE
:101750000400002000700040E868E26A00F0030125
:10176000914228D1216B00F0F00209011039914219
:1017700021D1626B00F4FE41B1EB022F1BD194F832
:10178000382000F07841B1EBC26F14D1A18F00F482
:10179000C00249084905A1F5001191420BD194F806
:1017A000401000E06EE04908490600F0C060A1F179
:1017B000007181424FD00C2E77D02868400174D43C
:1017C0002868C00071D4286820F080702860FFF776
:1017D0008FF8064605E000BFFFF78AF8801B022855
:1017E00057D828688001F7D4F4E90B016FF00F0295
:1017F00002EB01110843218A5204490802EB4151CE
:10180000A26841EA02210843217D4FF07E42490847
:1018100002EB41610843217B40EAC160E968244A48
:1018200011400843E860286800E03EE040F0807026
:101830002860E86840F08070E860FFF759F80446D7
:1018400005E000BFFFF754F8001B022821D82868E4
:101850008001F7D527E02868800124D4286840F06B
:1018600080702860E86840F08070E860FFF740F81A
:10187000044604E0FFF73CF8001B022809D828685A
:101880008001F7D50FE000BFFFF732F8001B0228F8
:1018900002D90320BDE8F88328688001F4D4E86801
:1018A00004490840E8600020F4E70120F2E7000066
:1018B0000C809D01FCFFEEFE70B5040009D0606A4B
:1018C000002540B125616561A56294F85D0040B1D5
:1018D0000CE0012070BD6068B0F5827FF4D0E56156
:1018E000F2E784F85C50204600F056F8022084F8B5
:1018F0005D002068016821F040010160E1684FF45B
:10190000E062914201D9002001E04FF48050B1F52E
:10191000706F02D0914200D0A562A188228901F4A3
:10192000827102F404421143227C02F0020211434C
:10193000227D02F001021143228B02F40072114356
:10194000227F02F03802114394F8202002F0800236
:101950001143228D02F40052114322681160A169E3
:10196000042202EA114194F8242000F4805002F08D
:101970001002114394F8342002F008021143A289A6
:1019800002F4706211430143206841602566012022
:1019900084F85D00002070BD10B586B004461421A7
:1019A0006846FEF7CCFD1349206888421FD11248D3
:1019B000016E41F480510166016E01F48051059180
:1019C000C16C41F00101C164C06C694600F00100C6
:1019D0000590E0200090022001900020029003205A
:1019E0000390052004904FF09040FEF751FE06B0A2
:1019F00010BD000000300140001002402DE9F05FF2
:101A0000044690F85C0000270A9E1D4692468B46CD
:101A10004FF0010901280ED0012084F85C00FEF788
:101A200067FF804694F85D00616801280CD0B1F52D
:101A3000827F07D102E0022000F011B9A16809B944
:101A4000042801D0022700E1BBF1000F24D0BAF135
:101A5000000F21D005B394F85D00042802D00520C2
:101A600084F85D0000202066C4F840A0A4F8465029
:101A7000A4F84450C4F838B0E587A587E064206531
:101A8000E0684FF4E061884201D8012D06D9206852
:101A9000426822F4805205E00127D6E020684268BF
:101AA00042F48052426020680268520603D4026801
:101AB00042F040020260E0688842606845D908B19F
:101AC000012D3AD1A06B21680088C860A06B801CF2
:101AD000A063E08F401EE0872FE0206881688907BF
:101AE0000FD5E18F69B1B9F1010F0AD1A16B098856
:101AF000C160A06B801CA063E08F401EE0874FF0A8
:101B0000000920688168C9070FD0B4F8461061B198
:101B1000C068216C0880206C801C2064B4F84600EA
:101B2000401EA4F846004FF00109FEF7E1FEA0EBCD
:101B30000800B04201D3701C75D1E08F0028CCD1D1
:101B4000B4F846000028C8D176E008B1012D6CD168
:101B5000E08F0128A06B08D921680088C860A06BBD
:101B6000801CA063E08F801E07E021680078087366
:101B7000A06B401CA063E08F401EE08755E020680A
:101B8000816889071AD5E18FC1B1B9F1010F15D16B
:101B9000E18F0129A16B07D90988C160A06B801C66
:101BA000A063E08F801E06E009780173A06B401CE3
:101BB000A063E08F401EE0874FF000092068816835
:101BC000C90728D0B4F8461029B3B4F84610012943
:101BD00014D9C068216C0880206C801C2064B4F883
:101BE0004600801EA4F84600B4F84600012810D82C
:101BF0002068416841F4805141600AE0007B216C1B
:101C00000870206C401C2064B4F84600401EA4F804
:101C100046004FF00109FEF76BFEA0EB0800B04252
:101C200002D3701C01D018E0BEB1E08F0028A6D10D
:101C3000B4F846000028A2D142463146204600F0C2
:101C4000E1FE10B1012720202066012084F85D000C
:101C5000002084F85C003846EEE60327F5E730BC48
:101C6000BDE8C09F10B5401EB0F1807F01D30120B8
:101C700010BD4FF0E02460610F21601701F0A6F85D
:101C80000020A06107202061002010BD7047704730
:101C900070470000F0B590F83C20012A39D00124AB
:101CA00080F83C40022280F83D2002685368956825
:101CB000194E1A4FB24201D0BA4204D123F4700C2B
:101CC0004B6843EA0C0323F0700C0B6843EA0C03E7
:101CD00053600268B24210D0B2F1804F0DD0104B69
:101CE0009A420AD00F4B9A4207D00F4B9A4204D027
:101CF000BA4202D00D4B9A4204D1896825F0800384
:101D00001943916080F83D40002180F83C1008465E
:101D1000F0BD0220F0BD0000002C01400034014065
:101D20000004004000080040000C0040004001405A
:101D300010B5040003D094F83D0010B107E0012075
:101D400010BD002084F83C00204600F023F802205B
:101D500084F83D00211D206800F0A2FF012084F8D6
:101D6000480084F83E0084F83F0084F8400084F87E
:101D7000410084F8420084F8430084F8440084F869
:101D8000450084F8460084F8470084F83D000020B0
:101D900010BD000008B501680B48B1F1804F0BD0B1
:101DA0000A4A914207D1816D41F002018165806D3F
:101DB00000F00200009008BD816D41F001018165D5
:101DC000806D00F00100F5E70010024000040040C3
:101DD00090F83D10012901D001207047022180F8C0
:101DE0003D100168CA6842F00102CA6000681149EA
:101DF000884211D0B0F1804F0ED00F4988420BD0ED
:101E00000E49884208D00E49884205D00D498842C3
:101E100002D00D49884207D181680C4A1140062939
:101E200006D0B1F5803F03D0016841F001010160A7
:101E300000207047002C01400004004000080040D2
:101E4000000C004000340140004001400700010048
:101E500070B5044690F83C000025012817D00126F3
:101E600084F83C60022084F83D00226890682F4B83
:101E7000184020F47F4090600868502838D00DDC6E
:101E800020284FD005DC90B3102811D14AE0022061
:101E900070BD302846D040280AD13BE060282FD0C2
:101EA00070280DD0B0F5805F03D0B0F5005F12D080
:101EB000012584F83D60002084F83C00284670BD70
:101EC000CB68D1E90121206800F04AFF20688168D1
:101ED00041F0770109E0CB68D1E90121206800F0E9
:101EE0003FFF2068816841F480418160E1E719E0AB
:101EF000CA684968206800F045FF5021206806E064
:101F0000CA684968206800F04EFF6021206800F030
:101F100031FFCEE7CA684968206800F033FF4021EE
:101F20002068F4E7226801461046F0E788FFFEFFCC
:101F3000704770B50446006801694FF00005C94359
:101F4000890715D4C168C943890711D4E91E016105
:101F500001202077206880698007204602D0FFF7A3
:101F6000E7FF04E000F0A7F8204600F0A5F8257789
:101F700020680169C943490717D4C168C9434907A3
:101F800013D46FF00401016102202077206880697A
:101F900010F4407F204602D0FFF7CAFF04E000F0B3
:101FA0008AF8204600F088F8257720680169C9433F
:101FB000090716D4C168C943090712D46FF0080194
:101FC0000161042020772068C0698007204602D084
:101FD000FFF7AEFF04E000F06EF8204600F06CF86A
:101FE000257720680169C943C90617D4C168C94368
:101FF000C90613D46FF01001016108202077206812
:10200000C06910F4407F204602D0FFF791FF04E042
:1020100000F051F8204600F04FF82577206801695C
:10202000C943C90708D1C168C943C90704D1891E7A
:102030000161204600F042F820680169C9430906A1
:1020400009D4C168C943090605D46FF08001016154
:102050002046FFF71CFE20680169C943C90509D461
:10206000C168C943090605D46FF480710161204637
:10207000FFF70CFE20680169C943490609D4C1680D
:10208000C943490605D46FF040010161204600F0C4
:1020900025F820680169C94389060BD4C168C94382
:1020A000890607D46FF0200101612046BDE8704029
:1020B000FFF7EEBD70BD70477047000010B50068B7
:1020C0000549884206D11FF0A7FBBDE8104001205A
:1020D0001FF0F6BA10BD0000000400407047FEE794
:1020E0002DE9F047174C074600216088401E83B257
:1020F0002088401E82B2084600F01CF912494FF4B5
:102100000079C1F80090DFF840808021A8F1100824
:10211000C8F8001000264FEA172A0CE0002506E058
:10212000504600F063FDF8B200F060FD6D1C2088A1
:10213000A842F5D8761C6088B042EFD8C8F8009065
:10214000BDE8F08770030020280800486F4910B5EB
:102150000120C1F8980100F0DBF8112000F028F907
:10216000782004F0D9FA362000F022F9482000F057
:102170000FF93A2000F01CF9552000F009F9F02081
:1021800000F016F9C32000F003F9F02000F010F978
:10219000962000F0FDF8B42000F00AF9012000F0CC
:1021A000F7F8B72000F004F9C62000F0F1F8C020DD
:1021B00000F0FEF8802000F0EBF8452000F0E8F891
:1021C000C12000F0F5F8132000F0E2F8C22000F082
:1021D000EFF8A72000F0DCF8C52000F0E9F80A20AD
:1021E00000F0D6F8E82000F0E3F8402000F0D0F846
:1021F0008A2000F0CDF8002000F0CAF8002000F09E
:10220000C7F8292000F0C4F8192000F0C1F8A52073
:1022100000F0BEF8332000F0BBF8E02000F0C8F872
:10222000D02000F0B5F8082000F0B2F80F2000F040
:10223000AFF8062000F0ACF8062000F0A9F8332033
:1022400000F0A6F8302000F0A3F8332000F0A0F84A
:10225000472000F09DF8172000F09AF8132000F0B6
:1022600097F8132000F094F82B2000F091F831201B
:1022700000F08EF8E12000F09BF8D02000F088F804
:102280000A2000F085F8112000F082F80B2000F001
:102290007FF8092000F07CF8072000F079F82F2063
:1022A00000F076F8332000F073F8472000F070F863
:1022B000382000F06DF8152000F06AF8162000F0C4
:1022C00067F82C2000F064F8322000F061F8F0206C
:1022D00000F06EF83C2000F05BF8F02000F068F8A9
:1022E000692000F055F8782004F016FA212000F05B
:1022F0005FF8292000F05CF8002000F079F8BDE8D4
:1023000010404FF6FF70FFF7EBBE00000080004268
:1023100010B507484FF480740460642004F0FCF9A1
:10232000034810380460BDE81040322004F0F4B9CE
:10233000280800482DE9F041DFF8508007461C4688
:1023400015460E4698F80C0000F032F8380A00F0F6
:102350001FF8F8B200F01CF8280A00F019F8E8B2EB
:1023600000F016F898F80E0000F022F8300A00F09D
:102370000FF8F0B200F00CF8200A00F009F8E0B213
:1023800000F006F8BDE8F04100F022B8700300202C
:1023900070B506494FF400740C60044D8021103D67
:1023A000296000F023FC2C6070BD00002808004864
:1023B00010B506494FF400740C6080220A6000F0EA
:1023C00015FC02481038046010BD000028080048C1
:1023D0000148007AFFF7ECBF7003002010B50C46EF
:1023E000FFF7E6FFE0B2BDE81040FFF7D1BF000005
:1023F00014492A228A812B22CA812C220A812E2268
:102400004A8110F003038B714FF4A0724FF4F07007
:102410000BD0012B0DD0022B0FD0032B11D1088034
:102420004A80E8213620FFF7D9BF0A80488048213A
:10243000F8E708804A802821F4E70A80488088214C
:10244000F0E770477003002070B5044607484FF46A
:1024500000750560054E8020103E3060200A00F0B7
:10246000C5FBE0B200F0C2FB356070BD2808004833
:102470002DE9F04786B014216846FEF760F8314830
:10248000C16C41F08001C164C16C01F08001059113
:10249000C16C41F00101C164C16C01F00101059101
:1024A000C16C41F00201C164C16C01F002010591EF
:1024B000C16C41F00401C164C16C01F004010591DB
:1024C000C16C41F04001C164C06C00F04000059057
:1024D000FEF7F4FBDFF870804FF4814400222146C0
:1024E0004046FEF700FADFF864904FF47076012260
:1024F00031464846FEF7F7F94FF4A0674FF0904A8F
:10250000012239465046FEF7EEF90125CDE9004596
:1025100000240294694640460394FEF7B9F80096F9
:10252000CDE90154694648460394FEF7B1F8009797
:10253000CDE90154694650460394FEF7A9F806B068
:10254000BDE8F08700100240000400480008004881
:10255000134810B511490160124941600021012260
:10256000C0E90212016141618161C1610162FEF74E
:1025700019FA08B1FEF78AF800210948FEF7BEF9FA
:1025800008B1FEF783F800210548FEF7E2F90028BC
:1025900003D0BDE81040FEF779B810BD00540040EC
:1025A00020020020B1757030124810B5104901604A
:1025B0004FF48271416000214FF4E062C0E90212E1
:1025C0004FF400720161C0E905121022C0E9072131
:1025D00007224162C0E90A12016308214163FFF743
:1025E0006BF9002803D0BDE81040FEF74FB810BDCE
:1025F000003001407402002010B588B00024164855
:102600000094019402940394049405944FF0804143
:10261000069401607721C0E90114611EC0E903142A
:102620008461FFF785FB08B1FEF730F84FF4805066
:10263000009069460848FFF70BFC08B1FEF726F842
:10264000049404A904480694FFF724FB002801D051
:10265000FEF71CF808B010BDD802002010B588B0F5
:10266000002418480094019402940394049405945F
:102670001349069401607721C0E9011440F2E73163
:10268000C0E9031480218161FFF752FB08B1FDF717
:10269000FDFF4FF48050009069460A48FFF7D8FBD1
:1026A00008B1FDF7F3FF049404A906480694FFF768
:1026B000F1FA002801D0FDF7E9FF08B010BD0000D5
:1026C0000004004024030020FEE7FEE770470000FE
:1026D0002DE9F041434C05468846E0680026810715
:1026E000286806D0E16801F0030181420FD170B182
:1026F0001AE0012804D0022805D0032807D108E0F9
:102700002168890701E021684905002907DB0126C6
:1027100064E02168890302D421684903F5E7E16890
:1027200021F003010143E160206820F08060206017
:10273000FEF7DEF8074604E0FEF7DAF8C01B0228D1
:1027400043D820680001F7D46FF00F00B8F1000FF4
:102750001BD0B8F1010F24D0297D4908420502EBB6
:102760004161AA6841EA02216A6800EB0210014354
:1027700020691D4A104001432161206840F08060BB
:102780002060FEF7B5F8074621E0A9682A7B090218
:1027900041EAC2616A6800EB021001432069134AF2
:1027A000E8E7298A124A490802EB4151AA6841EA3E
:1027B00002216A6800EB0210014320690D4AD9E743
:1027C000FEF796F8C01B022801D9032606E0206810
:1027D0000001F5D52069A969084320613046BDE8AC
:1027E000F0810000001002400F80FFF90F80FF070A
:1027F0000000E0FF0F809FFF2DE9F041434C0546AC
:102800008846E06800268107286806D0E16801F064
:10281000030181420FD170B11AE0012804D00228CF
:1028200005D0032807D108E02168890701E0216865
:102830004905002907DB012664E02168890302D4E9
:1028400021684903F5E7E16821F003010143E160F4
:10285000206820F080502060FEF74AF8074604E028
:10286000FEF746F8C01B022843D820688000F7D442
:102870006FF00F00B8F1000F1BD0B8F1010F24D09A
:10288000297D4908420502EB4161AA6841EA02211B
:102890006A6800EB0210014360691D4A1040014361
:1028A0006161206840F080502060FEF721F8074603
:1028B00021E0A9682A7B090241EAC2616A6800EB4B
:1028C000021001436069134AE8E7298A124A49085D
:1028D00002EB4151AA6841EA02216A6800EB02104A
:1028E000014360690D4AD9E7FEF702F8C01B0228D0
:1028F00001D9032606E020688000F5D56069A96942
:10290000084360613046BDE8F081000000100240DD
:102910000F80FFF90F80FF070000E0FF0F809FFF8F
:102920001748C16801F0030101291AD0022914D007
:10293000032914D00021C268C368C2F30312C3F391
:1029400006234B43521CB3FBF2F1C068C0F3416055
:10295000401C4000B1FBF0F070470A49EBE70A4920
:10296000E9E70168090704D4D0F89410C1F3032102
:1029700002E00168C1F30311044A52F82110DAE7BA
:10298000001002400024F40000127A00687102086E
:10299000F8B51A4D06460024A86DC00002D5FEF712
:1029A00095F90DE0A86D40F08050A865A86D00F085
:1029B00080500090FEF78AF9A96D21F08051A96539
:1029C000B0F5007F03D0802E06D3022407E0802ECE
:1029D00005D9A02EF9D801E0702E00D101240848B5
:1029E000016821F00F0121430160006800F00F0031
:1029F000A04201D00120F8BD0020F8BD0010024027
:102A000000200240F8B515460E460B4600920446DB
:102A100000224FF4C05100F019F888B93346002263
:102A200080212046009500F085F848B93346002201
:102A30004FF4C0612046009500F008F8002804D04B
:102A4000206E40F0200020660320F8BD2DE9FE4FE7
:102A50004FF0000A984617460E4604460C9D8DF826
:102A600004A0FDF745FF411BA8EB0105FDF740FF62
:102A7000814620684FF4C06B0C3002902A480068F1
:102A8000C0EBC00000EB8000000D6843009043E005
:102A90005E4506D12FB9029800788DF804009DF8A4
:102AA0000400B8F1FF3F37D0FDF722FFA0EB09008B
:102AB000A84203D215B1009858B32BE020684168B2
:102AC00021F0E00141606068B0F5827F0BD1A06821
:102AD000B0F5004F02D0B0F5806F04D120680168D6
:102AE00021F040010160A06AB0F5005F09D12068C3
:102AF000016821F4005101602068016841F400512F
:102B00000160012084F85D0084F85CA0032000F0DF
:102B10000DB80025401E0090206880683040B84203
:102B2000B6D10020F3E700000C0000201EBCBDE879
:102B3000E08F00002DE9F8431E4691468846044682
:102B4000089DFDF7D5FE401B351AFDF7D1FE07465F
:102B500025480068C0F3CB30684338E0701C37D09C
:102B6000FDF7C6FEC01BA84203D215B1009860B3A2
:102B70002CE02068416821F0E00141606068B0F518
:102B8000827F0BD1A068B0F5004F02D0B0F5806F06
:102B900004D12068016821F040010160A06AB0F50D
:102BA000005F09D12068016821F4005101602068AC
:102BB000016841F400510160012084F85D000020AB
:102BC00084F85C000320BDE8F8830025401E0090D7
:102BD0002068816838EA010004D000214945BDD150
:102BE0000020F0E70121F9E70C00002001B582B0D8
:102BF0004FF6FF700090012301AA02A90248FEF7D8
:102C0000FDFE9DF804000EBD740200207047FDF724
:102C100067BF10B596B044216846FDF790FC1421BB
:102C200011A8FDF78CFC0020FDF7EAFF08B172B691
:102C3000FEE7102001210090002406916020CDE9DC
:102C400007400220CDE90A010C913C21CDE90D108D
:102C50000F9010906846FEF77BFB08B172B6FEE756
:102C60000F2011900320CDE912041494052111A81E
:102C70001594FEF74FFA002801D072B6FEE716B0A1
:102C800010BD00000248016841F470010160704706
:102C900088ED00E00148FFF74CB900002403002054
:102CA0002DE9F0470268264B264D274E274F284C2A
:102CB0004FF0804A984209D0504507D0A84205D02D
:102CC000B04203D0B84201D0A04204D122F0700C2F
:102CD0004A6842EA0C02DFF87CC0DFF87C80DFF84B
:102CE0007C9098420FD050450DD0A8420BD0B042F6
:102CF00009D0B84207D0A04205D0604503D0404576
:102D000001D0484503D122F44075CA682A434D6971
:102D100022F080022A4302608A68C2620A688262E4
:102D2000984207D0A04205D0604503D0404501D06D
:102D3000484501D10969016301214161BDE8F0877E
:102D4000002C01400004004000080040000C00403E
:102D5000003401400040014000440140004801406F
:102D600010B5846842EA032224F47F440A432243D4
:102D7000826010BD826822F070020A4342F00701AF
:102D80008160704710B5036A046A24F0010404628C
:102D9000846924F0F00444EA021423F00A020A438E
:102DA0008461026210BD10B5036A23F01003036250
:102DB0008369046A23F4704343EA023224F0A003D7
:102DC00043EA01118261016210BDFEE70907090EA5
:102DD000002804DB00F1E02080F80014704700F0C8
:102DE0000F0000F1E02080F8141D704770B5044614
:102DF00000256FF02F0608E02068411C2160007854
:102E000005EB850106EB410145182068007800F0CC
:102E100004F80028F0D1284670BD3038092801D8C0
:102E2000012070470020704710B54021074801F08D
:102E300091F800221E2106481EF0BCFC054CA06043
:102E400002F0ECF80020207010BD0000FC0400200F
:102E5000C55000088001002070B5B1F90030B2F90A
:102E60000040A34200DC23460380B1F90250B2F9CE
:102E70000240A54200DD2C464480B1F90460B2F95D
:102E80000450AE4200DA35468580B1F90610B2F939
:102E90000620914200DB1146C1800120AB4201DCDB
:102EA0008C4200DD002070BDF8B50D460446B0F937
:102EB0000000B1F900101646884247DBB4F9021051
:102EC000B5F90220914241DBB4F90410B5F90420B0
:102ED00091423BDCB4F90610B5F90620914235DC8D
:102EE00096B3ADF800006088ADF80200324669463E
:102EF000284600F099F8002827D0A088ADF80000F7
:102F00006088ADF8020032466946284600F08CF829
:102F100000281AD02088ADF80000E088ADF8020043
:102F200032466946284600F07FF800280DD0A08878
:102F3000ADF80000E088ADF8020032466946284648
:102F400000F072F8002800D00120F8BD0020F8BD84
:102F5000B0F90020B1F904309A4213DCB0F9042032
:102F6000B1F900309A420DDBB0F90220B1F9063018
:102F70009A4207DCB0F90600B1F90210884201DB81
:102F80000120704700207047F8B50D460446B0F99F
:102F90000400B1F900101646884243DBB4F906007C
:102FA000B5F9021088423DDBB4F90000B5F9041010
:102FB000884237DCB4F90210B5F90620914231DCC1
:102FC00076B3ADF800006088ADF80200324669467D
:102FD000284600F029F818BBA088ADF800006088EA
:102FE000ADF8020032466946284600F01DF8B8B92F
:102FF0002088ADF80000E088ADF80200324669464E
:10300000284600F011F858B9A088ADF80000E08813
:10301000ADF8020032466946284600F005F808B1CE
:103020000020F8BD0120F8BD2DE9FC4114460E46F4
:10303000B1F90020B0F9001005468A423ADBB5F933
:103040000400824236DCB6F90270B5F902209742DC
:1030500030DBB5F906309F422CDC002C75DD401AC0
:103060009A1A401C521C00B212B200EBD07002EB54
:10307000D27240105210904200DB1046844200DDB4
:103080000446ADF80010288800222044ADF8040062
:103090006888ADF80200688831462044ADF8060023
:1030A0006846FFF7C1FF40B1BDF804002044ADF809
:1030B00004003FE00020BDE8FC81E8880022001BFE
:1030C000ADF80200E888ADF8060031466846FFF723
:1030D000ABFF28B1BDF804002044ADF8040011E0B6
:1030E000A8880022001BADF80000A888ADF80400F5
:1030F00031466846FFF798FF50B1BDF80000001B4D
:10310000ADF80000BDF80200001BADF8020016E0AB
:103110006888ADF80200688800222044ADF80600F7
:1031200031466846FFF780FF70B1BDF80000001B14
:10313000ADF80000BDF806002044ADF806003146A9
:1031400068461BF073FBB6E7FFE70120B3E710B555
:10315000B1F90040B2F900309C4200DA2346038006
:10316000B1F90240B2F902309C4200DA23464380B2
:10317000B1F90440B2F904309C4200DD234683805B
:10318000B1F90610B2F90620914200DC1146C18067
:1031900010BD0000FEB507461EF088FA0025354C2C
:1031A0000646009537B1F868606038461EF0D0FBDF
:1031B000606802E010F0E4FD606000691BF0CAFA8C
:1031C0006068406908B11BF0C5FA6068C0691BF00F
:1031D000C1FA6068006A1BF0BDFA60680169E1B37A
:1031E0001BF064FD1BF0E0FC6068B0F8501199B36F
:1031F0000168097C890715D510F020FE401E07B232
:10320000606810F0D5FD401E03B20022114601A8EF
:1032100000970EF046FB606801A90268926B51604E
:1032200004F036FA60684FF48071303016F080FE9A
:103230006068202100F5987016F07AFE6068A0F8AA
:10324000505130461EF02CFA009060680068436AC6
:1032500013B122680099984700E007E016F086FC59
:1032600000F036F8BDE8FE4000F006B8A0F8505176
:10327000FEBD00003C00002070B50A4D002400BFD8
:10328000C4EBC40655F8260008B116F0E3FC05EBC4
:1032900086001C2116F04CFE641CE4B2042CEFD313
:1032A00070BD0000D8050020084949680AE04A6856
:1032B000824202D00A68824203D10A7E42F00102B1
:1032C0000A7649690029F2D17047000010000020F9
:1032D000704700000421014800F03CBEF0040020CB
:1032E0001C21014800F036BE080500202DE9FF5FD3
:1032F0000446DDE90E0613B9B0F5807F7ED0B6F93D
:1033000000504FF0FF376D42454307EB25252DB2A6
:103310002580B6F902C0CCF1000C0CFB00FC07EBD9
:103320002C273FB26780B6F900C0A1EB0C014143E6
:103330004FF0020C0CEB212109B2A180B6F90280FA
:10334000A2EB080242430CEB222000B2E080002BEB
:103350007ED04FF00A0A93FBFAF5684200EB80003A
:1033600003EB400705F1010928B21EF0B7FC0090FD
:103370000FFA89F01EF0B2FC83465A3528B21EF0CF
:10338000ADFC804609F15A0000B21EF0A7FC0146D0
:10339000009AC7F10A0000FB02F300FB08F00BFBE8
:1033A000073301FB070193FBFAF291FBFAF04FEAB6
:1033B000601AB4F90010B4F902000AFB01FCCDF860
:1033C0000CC05511378805FB10C207EBA2220FFA7B
:1033D00082F905FB01F2BB46029277880AFB0021C5
:1033E00007EBA1210BB2B4F90410BE460AFB01FCA5
:1033F00005FB10C20BEBA22216B200E02FE005FB8A
:1034000001F7CDE9007CB4F90680DDF80CC00AFBB9
:10341000007005FB18C1DDF804C0009F05FB18C54E
:10342000029A0AFB087C0AFB08220BEBA1210EEB97
:10343000AC270EEBA02009B20EEBA2220BEBA525C8
:103440000FFA87FC00B212B22DB24F46494500E098
:103450000EE000DA0F46B54216DAA84615E0002065
:103460002080491E6080A180521EE28000F05EB87C
:1034700032882A44228072883A4462803288114419
:10348000A180718808444FE0B046474504DA4F46B2
:10349000494506DA0F4604E0B54201DA2F4600E05E
:1034A000374627804F46494500DD0F46B54201DDCE
:1034B000A84600E0B046474503DD4D46494505DCDA
:1034C00001E0B54201DD294600E03146A1809A4283
:1034D00001DA154600E01D46844501DA614600E048
:1034E00001468D4205DA9A4201DA114606E0194694
:1034F00004E0844501DA614600E0014661809A42B9
:1035000001DD114600E01946844501DD654600E015
:103510000546A94205DD9A4201DD104604E0184641
:1035200002E0844500DD6046E0809FE73FBCBDE8E7
:10353000C09F2DE9FE4F0446D0F800B0B0F9080056
:10354000E589081AB4F90A10511AD4E90932B5F517
:10355000807F38D0A589ADB3A66B704345114E432B
:103560007011266BE16A06FB05F701FB10776943D2
:1035700006FB001003EBA72902EBA02080460612F1
:10358000B4F904004FEA2927B8424EDD002F4CDB86
:10359000B4F90610B14248DD002E46DB94F8341031
:1035A0004A0745D58A0704F1140322D400FB0670AC
:1035B00045004FF0020A0BEB05015246184616F083
:1035C00061FC27E00DE0256BE66A05FB00F706FBD2
:1035D0001177464305FB016003EBA70902EBA0004E
:1035E000CCE7A56B68434D4303EB601902EB651014
:1035F000C4E700FB067000EB40054FF0030A0BEB3D
:1036000005010222184616F03DFCE81C584410F84B
:10361000010CA07594F83400C0071FD04FF4FC6073
:10362000ADF80000A18A814218D1002000F02AB82C
:1036300032B204F118002369CDE90102002539B244
:10364000AA468B4613F0FAFE0090BDF80000A08257
:10365000DDE90102594613F089FEDAE7E07C78B132
:10366000A4F83C90A4F83E80A4F84070A4F842600E
:10367000656484F848A0204600F007B800F00AB856
:103680000120D3E71EBCBDE8E08F1EBCBDE8E04FC3
:10369000FFF7F4BF2DE9F04F044690F83C10D0F846
:1036A000009090F83E0087B04FF0FF36702907DA9F
:1036B000B4F940203546012A00D5002580310DE0BF
:1036C000902916DDB4F94020B4F904300125521CCC
:1036D0009A4200DB0025A1F27F114942C9B2884617
:1036E000702809DAB4F94210012900D5002680308B
:1036F00010E00025FF21F2E790280DDDB4F942101B
:10370000B4F906200126491C914200DB0026A0F2F4
:103710007F104042C7B201E00026FF276069009099
:10372000A07D0590002083468246049094F83400E2
:10373000400744D594F84810606C11FB05014944DA
:10374000022201A816F09EFBA08894F8481010FBF6
:1037500001F0616C022206FB0011494403A816F037
:1037600091FBA18894F8480011FB00F1626C06FB04
:10377000012210FB05901118022202A816F082FB0C
:1037800094F83400800761D594F84800626C10FB0F
:10379000052300EB09010B4413F8013C0493A388B3
:1037A00013FB00F306FB0322114411F801BC10FBCC
:1037B0000500111801EB090010F8010C45E0B4F800
:1037C0004000B4F94220284401B204F118008146B7
:1037D000236913F033FE0190B4F84200B4F94010AD
:1037E000304402B254F8103F484613F027FE0390CD
:1037F000608E2368304402B2208E284401B24846CD
:1038000013F01CFE029094F82400103C80071DD594
:10381000B4F9422034F8400F284401B2484613F06E
:10382000A5FD04906088B4F90010304402B2484607
:1038300013F09CFD83466088304402B234F840099E
:10384000284401B2484613F091FD824694F83400B2
:1038500042464546800735D5059810FB08F3049984
:10386000C8F1FF0011FB0031C1F307211BFB08F673
:103870001AFB0060C0F3072011FB07F3C7F1FF0636
:1038800010FB06331B0AA375022907D8022803D8A8
:10389000002007B000F040B8002702E0022800D85E
:1038A000FF270598022800D800220498022800D893
:1038B000FF22BBF1020F00D80025BAF1020F03D896
:1038C000FF2501E0FF20A075EAB1FF2A04D0DDE961
:1038D00000010FF01BFE0090BDB1FF2D17D0DDE9F8
:1038E00002102A460FF012FE049097B1FF2F05D068
:1038F00001463A4600980FF009FE0090BDF800001E
:10390000A0820120C5E70198E5E70298ECE703985B
:10391000EAE7BDF81000F3E730BCBDE8C08F000057
:103920002DE9F0470446B0F908000A27000260625A
:10393000B4F90A000002A062B4F90C1091FBF7F58B
:10394000684200EB800001EB4006684205F1010887
:1039500000B21EF0C3F98246E84300B21EF0BEF981
:103960008146C5F15A0000B21EF0B8F90546C8F10B
:103970005A0000B21EF0B2F9C6F10A0101FB0AF3C7
:10398000024609FB0630694390FBF7F002FB061183
:1039900091FBF7F14011E06248112063A07C13F025
:1039A000FAFD94F8341060F3000184F83410A07C20
:1039B00013F0E1FD94F8341060F3410184F8341001
:1039C000A07C042824D0052822D0062820D021F06D
:1039D000040100BF84F8341021682162A16921F03C
:1039E000E00160F30401A08860F39421E08860F3B3
:1039F0005F51A161E0894FF4001101EB5001B1FB6F
:103A0000F0F0A063FF20A075208AA082BDE8F087B7
:103A100041F00401DEE700002DE9F04115460E46B5
:103A20000746114C1DF042FE80462B463246394671
:103A3000204614F03DF920B10020A062E06950B1A9
:103A400010E02C21204616F073FA4FF00040A062DF
:103A50000020BDE8F08140461DF022FEE06108B97B
:103A60000120E0612046F4E72C05002010B5142168
:103A7000074800F06FFA14F0E1F840B10549016021
:103A800005494160054981600549C16010BDFEE7F7
:103A90001405002051760108D9790108577B0108E7
:103AA0001D76010870B50D4604461021284616F013
:103AB0003FFA20680078012804D0022807D00428A3
:103AC00007D008E0208A2880608A688003E0E068E8
:103AD00000E00A20686020684268002A03D0294676
:103AE000BDE87040104770BDFEB5866A0446BEB999
:103AF000A08A218A0844A082E08A618A0844E08280
:103B0000204609F0F7FF060079D020460CF07AFA3B
:103B100000220921304612F067FF607880076ED4DA
:103B2000208A10B9608A002869D00025ADF80450B9
:103B3000ADF8085094F83C0000F00F000328304620
:103B400016D018F019F90746304617F0CBFF034698
:103B50000C200090B4F912103A46304609F075FB7B
:103B6000ADF80800304618F00FF8C10712D017E082
:103B700018F096F80746304618F02EF80246032053
:103B80000090B4F910103B46304609F05EFBADF8EA
:103B90000400E7E7BDF90410002901DDADF8045089
:103BA000810705D4BDF90410002901DAADF80450ED
:103BB000410705D4BDF90810002901DDADF8085012
:103BC000000705D4BDF90800002801DAADF8085057
:103BD00002AA01A9204620F024FB0023BDF90820F9
:103BE000BDF9041030461AF0EBF8A08ABDF80410B5
:103BF0000844A082E08ABDF808100844E082FEBDB7
:103C00002DE9FC5F0446806A5FEA000B71D094F8EE
:103C10003C0000076DD014F009FB019000684021C2
:103C2000457E584619F05AF84FF0000818B9A4F824
:103C30001A80A4F81880584618F090F88246584622
:103C400018F093F8064694F83C004FF0640900F031
:103C50000F000C2802D003284CD09AE0A4F818805A
:103C600056B1B4F91A50002714F0E0FA006849463A
:103C7000407EC0F1640022E0608BC5F1640110FB5E
:103C800001F191FBF9F06083584617F02BFF0546D0
:103C9000584618F071F802460C200090B4F91A103A
:103CA0002B46584609F0D1FA6083024600231EE0F5
:103CB0007A1917B210FB05F292FBF1F215B2002D42
:103CC000F6D1ADF80070A4F81A806A4600212046AB
:103CD00020F0A7FA41F6FF72BDF900305142584674
:103CE0000AF074F8BDF800100123084402B2002164
:103CF0004CE09AE0A4F81A80BAF1000F0AD0B4F9A7
:103D00001850002714F092FA00684946407EC0F12E
:103D1000640022E0208BC5F1640110FB01F191FBEE
:103D2000F9F02083584617F057FF0546584617F01C
:103D3000B7FF034603200090B4F918102A465846EE
:103D400009F083FA2083014600231EE07A1917B296
:103D500010FB05F292FBF1F215B2002DF6D1ADF891
:103D60000070A4F8188000226946204620F059FA15
:103D700041F6FF72BDF900305142584609F09AFFF2
:103D8000BDF800100123084401B2002258461AF081
:103D900017F8208B002848D1608B002845D1C6B980
:103DA000584617F0E9FF0546584617F09BFE002DD0
:103DB00006DC00280DDD002D02DA01232A4604E08E
:103DC000002806DA0123404202B20021584619F0C9
:103DD000F7FFBAF1000F19D1584617F0FDFE05465E
:103DE000584617F05DFF002D07DC00280EDD002D82
:103DF00003DA01230022294605E0002806DA012320
:103E00000022404201B2584619F0DAFF0A21584612
:103E1000019A12F0E9FD6078800706D414F83C0F8F
:103E200020F00F00207044F8148C00F000B83CBC67
:103E3000BDE8C09F7FB50E46040003D10FF0A0FF80
:103E4000040023D00025FEB1ADF80050ADF80250BB
:103E50000FF0AEFF401EADF8040020460FF0EEFF5D
:103E6000401EADF806006A46314602A8FEF7F4FF90
:103E700000280BD02068017C890708D5DDE9000106
:103E8000C4E90C0101202AE0A0F850517FBD8269ED
:103E90000AB102A9904700260BE000BF04EBC6015F
:103EA000002202A83031FEF7FFFF0028EED1761C79
:103EB000B6B2B4F85001B042F0D880B2202804D293
:103EC00004EBC00002A9303004E0A4F8505104F122
:103ED000300069460DF03CFCB4F85001401CA4F8D9
:103EE000500160680028D1D01DF03EFD7FBD70B547
:103EF000054600F012F804460CE02146284600F082
:103F00001EF806462146284600F071F8204615F0B6
:103F1000A1FE3446002CF0D170BD002800D04068CE
:103F2000704700B503460022FFF7F7FF03E018468D
:103F3000521C00F004F80100F9D1104600BD0068E1
:103F4000091D40587047006840587047002800D04D
:103F50008068704700224260C91C21F00301826022
:103F60000160704770B504460068083015F0E8FD40
:103F7000050013D00146002220461EF0E3FD29462D
:103F8000204662681EF0D8FD616819B12A462046B5
:103F90001EF0D8FD6560A06800B9A560284670BD18
:103FA00070B504460068083015F0CAFD050013D04E
:103FB0000146002220461EF0BFFD29462046A26889
:103FC0001EF0C0FDA16819B12A4620461EF0B4FDBE
:103FD000A560606800B96560284670BD28B1416879
:103FE00009B9806808B1002070470120704770B59A
:103FF00004000DD0FFF791FF00228842204608D12F
:10400000FFF79DFF6060011E01D000221EE0A2604C
:1040100070BDFFF79BFF8842206808440AD1016801
:10402000A16029B12046BDE8704000221EF084BD89
:10403000626070BD05682046FFF781FF06460246B4
:10404000294620461EF078FD2A4631462046BDE826
:1040500070401EF077BD10B50446006882680AB152
:104060002146904720680068002801D02060F5E7CD
:1040700010BD8068002801D0B0F91600704700001C
:104080002DE9F047074690B0408C189E40F00400A0
:10409000788490463A8499468A463289384618F0A0
:1040A00085FC0546A7F8209032895146384618F01D
:1040B0007DFC0446788CA54220F00400788403D16E
:1040C0002904B1EB044F68D0A7F82080328951460B
:1040D000384618F06BFC05468046A7F820905146FC
:1040E00038460BF06BF8318900682A461BF0E6FF72
:1040F0003089602823D147F6FF794D4501D04C45E2
:104100001DD1384618F0A1FD00EBD070451038469F
:1041100018F09BFD00EBD0704010C84506D1691C1B
:10412000431C994200DA00E0194688464C4506D106
:10413000691C421C914201DA6C1C00E014461948CB
:10414000FFF710FF05002BD02F60C5E903843089ED
:10415000A8806846C5F808A00CF002FE1248FF21AE
:10416000CDE90050114802901148039000200790BB
:10417000CDE9080130880A9070889DF83E104042D1
:104180000B90F0680690002060F300018DF83E105F
:104190003069059068460CF057FE10B0BDE8F08716
:1041A000FEE7000020050020596B02084D6D020853
:1041B000A96C020814210148FFF7CCBE200500209D
:1041C0002DE9FC5F002592468B4606462C460427C7
:1041D00043F60F0843F60E0900E100BFF16807EB54
:1041E000C400085882017DD480B230EA0B0212D09C
:1041F0005FF0000230EA0A000FD00020824271D046
:1042000051F8340001AA41F6100100901BF03CFD6A
:10421000002868D103E00122ECE70120EEE701AAC3
:1042200041F6110100981BF02FFD002873D101AA5F
:1042300041F6120100981BF027FD00286BD101AA5E
:1042400041F6130100981BF01FFD002863D101AA5D
:1042500041F6150100981BF017FD00285BD101AA5B
:1042600041F6140100981BF00FFDE0BB01AA41F2DA
:10427000690100981BF008FDA8BB01AA43F20C01DC
:1042800000981BF001FD70BB01AA43F20D010098DC
:104290001BF0FAFC38BB01AA41F2010100981BF0A7
:1042A000F3FC00BB01AA41F2040100981BF0ECFCF6
:1042B000C8B901AA41F2020100981BF0E5FC90B9CF
:1042C00001AA41F2030100981BF0DEFC58B901AAD3
:1042D00041F2050100981BF0D7FC20B901AA41F278
:1042E000060101E079E016E000981BF0CDFC90B9E2
:1042F00001AA41F2320100981BF0C6FC58B901AA8C
:10430000414600981BF0C0FC28B901AA4946009814
:104310001BF0BAFC10B1032000F068B801AA40F607
:104320000A0100981BF0B0FCF0BB01AA40F60B019B
:1043300000981BF0A9FCB8BB01AA414600981BF0ED
:10434000A3FC88BB01AA494600981BF09DFC58BB02
:1043500001AA40F63C0100981BF096FC20BB01AA84
:1043600040F63D0100981BF08FFCE8B901AA40F629
:104370003A0100981BF088FCB0B901AA4FF404611F
:1043800000981BF081FC78B901AA40F6450100981D
:104390001BF07AFC40B901AA40F6410100981BF0DD
:1043A00073FC08B901AA00E013E040F6420100984E
:1043B0001BF06AFC68B901AA40F6430100981BF0A3
:1043C00063FC30B901AA40F6490100981BF05CFC7F
:1043D00008B1022501E005B90125641C708CC0F309
:1043E000C500A0423FF6FAAE284695E73CBCBDE8C2
:1043F000C09F000001484068704700003C0000205A
:104400007047C0F30410072800D907207047000048
:1044100010B518210348FFF79DFD034901200870DE
:1044200010BD0000CC040020AC0100202DE9F041BB
:1044300090460C46050015D0FBF7EBFF0A4F0646E9
:104440002146BA68284690470446BA68281941466A
:1044500090470146701A03E06218AA5C2A55641C52
:10446000A042F9D2BDE8F081C00100202DE9F04161
:10447000094D90460E466A681C4607461946904705
:10448000306020B120686A68384400219047C8F83D
:104490000000BDE8F0810000C00100202DE9F04FD0
:1044A00087B08A46DDE910581F469346044600212E
:1044B00005B129805CB12078002809D0BAF1000F3D
:1044C00005D0002618F0060F15D0002004E00020CB
:1044D00007B000F063B8401C215C0A2904D00D2904
:1044E00002D00029F7D100E0401C002DF0D04FF0A1
:1044F000FF312980ECE75FEA887001D541F6FF774C
:10450000894608468DF81410049127E00498CDF8E8
:10451000189068B34FF0000C05AA06ABCDF80CC09C
:10452000CDF80080CDE9013220443B465A46514641
:104530001DF0FEFB06997A1A314417B20EB288B10B
:1045400004990144049120780A280BD00D2809D041
:10455000605C0A280FD00D280DD00846205C08B1F9
:10456000002FD3DC049848B105B12E800498AFE742
:104570004FF0010CD0E7481C0490F3E7064A04A969
:10458000204652689047002DF0D001460022504648
:1045900012F005FB06B2E8E7C001002030BCBDE820
:1045A000C08F00002DE9F0411746884606001ED056
:1045B000002F1CD0FBF72DFF04463846FBF729FFE0
:1045C000050014D00B4A2C4441469268304690476F
:1045D000411903E0621BB25C3255641EA142F9D955
:1045E00030442A463946BDE8F04115F063BCBDE8C9
:1045F000F0810000C001002000230278232902D0AE
:10460000012A0DD00FE02AB10021012A04D0022A8C
:1046100004D008E0012101E0017004E0017001E034
:10462000202902D00123184670470221F6E72DE920
:10463000F0410E46804602460021334608461DF0F2
:10464000B9FD04460027401C15F07AFA050008D091
:104650002F5533464246611C1DF0ACFD2846BDE88F
:10466000F081FEE72DE9F0471E4614460D468246CE
:10467000DDF8209015E000BF4FEA540808FB06570C
:10468000394650464A469047002808DD44F300006A
:10469000C0EB540407EB0605A4F1010401E005DAC0
:1046A0004446002CE8D12046BDE8F0873846FBE7B9
:1046B0002DE9FC5F9B460CAB8A468146DDE9116023
:1046C00093E81210DDE90F575FEA80784FF030036E
:1046D0001AD45EB15FEAC07808D000F00C0858EA3E
:1046E0000C0803D0761E01E00B55641CBC4204D2BA
:1046F000202CF9D301E00B55641C5FEAC07803D08D
:10470000B44201D2202CF6D35FEAC06825D55FEA17
:1047100040580AD44CB1BC4201D0B44205D1641E09
:1047200003D0102D03D1641E04E0102D02D0022D01
:104730000AD00EE0850603D4202C1ED2782506E090
:10474000202C1AD2582502E0202C16D262250D55B5
:10475000641C202C11D20B55641C202C0DD2BCF1F2
:10476000000F01D02D2306E0430701D52B2302E0E3
:10477000030702D520230B55641CCDE900BAC846B7
:10478000154681468B46AA46800714D1274607E086
:104790002A46DDE900316D1C2020C446E0477F1C1D
:1047A000B742F5D307E02A466D1C641EDDE90031EF
:1047B0001BF80400C047002CF5D15FEA897006D4CD
:1047C00009E02A46DDE900316D1C2020C047A5EB39
:1047D0000A00B042F5D3284600F000B83CBCBDE862
:1047E000C09F2DE9F04F8FB099468B46DDE9181830
:1047F000DDE91C63DDE91A4792468646002209B9C5
:1048000023F01003580507AD00D5C9B1B1FBF4F092
:1048100004FB1010C0B20A2801D2303009E05FEA70
:10482000836C02D54FF0410C01E04FF0610C604405
:104830000A38B1FBF4F1A854521C09B1202AE5D37F
:10484000CDF80880CDE90563CDE90052CDE90347F5
:104850004B46524659467046FFF72AFF0FB000F00C
:1048600000B830BCBDE8C08F2DE9FF4F8FB01CAC45
:10487000DDE9239594E8030820AC94E8C004002403
:1048800050EA010201D125F010056A050DF11C085E
:1048900002D550EA010217D032463B46FBF71EFD17
:1048A000D2B20A2A01D2303206E0AB0601D541234A
:1048B00000E061231A440A3A08F80420641C50EA14
:1048C000010201D0202CE7D3CDE90084CDF808B057
:1048D000CDE90595CDE9036A0FAF97E80F00FFF723
:1048E000E7FE13B000F000B830BCBDE8C08F9A42BC
:1048F00000D28854704770472DE9FF4F89B00546B4
:104900000A9800249246002800D1FE4D8FE1252808
:1049100004D02246641C53460A990BE2491C4FF00E
:10492000000808460C9101782B2919D004DC2029B5
:1049300019D0232904D119E02D290ED0302909D00E
:104940000026C8B2FEF769FAB0B10CA8FEF74EFA1D
:1049500006461FE048F001010AE048F0020107E0C6
:1049600048F0040104E048F0080101E048F01001BB
:10497000401C88460C90D6E70C9908782A2809D163
:10498000169840C81690002E02DA48F002087642C7
:10499000491C0C910C984FF0000B01782E2919D16D
:1049A000401C0C9048F480680078FEF736FA20B17D
:1049B0000CA8FEF71BFA83460CE00C9A10782A2804
:1049C00008D1169802C81690002900DC0021521C5C
:1049D0008B460C920C9801786C290AD004DC68296B
:1049E0000FD06A2919D128E0742929D07A2914D145
:1049F00026E0401C0C90017848F480786C291CD08B
:104A00000BE0401C0C90017848F08008682904D124
:104A100048F04001401C88460C9002460078692806
:104A200022D015DC62281FD00DDC252871D050283B
:104A30001AD058287FF46DAF16E048F40071E9E70A
:104A400048F48071E6E7632878D06428F2D10BE05F
:104A5000732874D004DC6F2806D07028EAD103E0F4
:104A6000752801D07828E5D178280DD058280BD0AA
:104A700070280BD0502809D06F2816D0622816D085
:104A80000A2128F0100016E0102107E050781021CC
:104A900048F48878562804D1521C0C921078582873
:104AA00007D01078502804D006E0082109E0022140
:104AB00007E048F0200080461078692803D0642879
:104AC00001D028F00C085FEA485001D528F0010811
:104AD000107869281ED064281CD0562864D05FEA5C
:104AE000885072D5169804ABC01D002283E80608D2
:104AF0000292CDE9076820F007005346F0E8021261
:104B0000CDE900121690224628460A99FFF7ACFE1E
:104B100089E00AE15FEA885024D5169804AFC01DE9
:104B200020F00703F3E802021693002387E80A083F
:104B3000CDE90768002A03DA012102E080E0A6E05F
:104B400000210023029119461B1A914101DA1146F6
:104B500003E00021404261EB020153462246CDE9C9
:104B60000001D1E75FEAC85004D5169804C80FE0E9
:104B7000524215E05FEA486003D5169810F8042BFE
:104B800006E05FEA0860F0D5169830F8042B12B200
:104B90001690CDE9021BCDE90468D00F002AE7DDAD
:104BA000CDE9002053461EE01698AAEB040202C885
:104BB00016904868006800900A980B68011928460A
:104BC000FFF79AFE04442FE0FFE75FEAC8500CD5D8
:104BD000CDE9021BCDE9046816980021534604C8AC
:104BE000CDE900211690224619E05FEA486003D51E
:104BF000169810F8042B08E05FEA0860169803D5B1
:104C000030F8042B92B200E004C816900020CDE9E1
:104C10000020CDE9021BCDE9046853462246284610
:104C20000A99FFF7DEFD04460C98401C0C900C9985
:104C3000087800287FF46BAE54457DD222467DE093
:104C400001275FEA887006D509E02246641C5346B6
:104C500020200A99A84738467F1CB042F5D3169900
:104C60002246641C11F8040B169153460A99A84772
:104C70005FEA887006D4D7E72246641C534620209A
:104C80000A99A84738467F1CB042F5D3CCE716985E
:104C900050F8049B16904B46BBF1000001D0014632
:104CA00001E04FF0FF31484600E0401C02780AB1B5
:104CB000491EFAD2C71A5FEA485003D558465F45E5
:104CC00000D307465FEA887006D512E02246641CCE
:104CD000534620200A99A84738467F1CB042F5D396
:104CE00007E000BF224609F10109641C53460A99F6
:104CF000A84799F8000040B15FEA4851F2D5BBF1EE
:104D0000010B01E0F7480008ECD25FEA887006D496
:104D10008AE72246641C534620200A99A847384651
:104D20007F1CB042F5D37FE706E02246641C534661
:104D300025200A99A84777E7AAF1010253460020E7
:104D40000A99A8470DB0204600F000B830BCBDE875
:104D5000C08F10B502004FF000000CD04B1E19425E
:104D600000D0FEE70A44521E9A43B2F5803F02D2B9
:104D70000C2A01D9104610BD0C2010BD08444A1E53
:104D8000401E9043114200D0FEE770472DE9F041EC
:104D90000F4601210025044641862E460BE01B49A3
:104DA000FBF7F4FB10B16D1CADB202E0608E401C4D
:104DB0006086761CB6B257F8260010B1017800293B
:104DC000EDD1208EA8421ED0A06A002610B114F0AA
:104DD00041FFA662E06A10B114F03CFFE662E80011
:104DE00014F0AEFEA06238B1680014F0A9FEE062D3
:104DF00018B1A16A11B102E0FEE7FEE700256900E3
:104E000015F096F82586BDE8F0810000E421010840
:104E10002DE9F84F8146407A0F4600F0070002283E
:104E200019D010468046974200DD3A4616460320C8
:104E30002A4C2B4A00EB460020F00305A0681168BD
:104E40001035411A636805EB010C9C4505D2416899
:104E500021F0004124E00846E4E79D4219D892463B
:104E60004FF0FF3B48196168884210D9002269461B
:104E70001C48CDF800B00BF09FFC002269461A4890
:104E80000BF09AFCA168DAF80000091AEAE7A068BA
:104E9000DDE7284614F054FEC0B1416841F00041FE
:104EA00088EA6702416089EA02010160416801F015
:104EB0004041491C31F0804141608681A0F80E805C
:104EC00005D500F11001816000F010B8FEE7A1687F
:104ED00001F1100229448260A160F5E7440000203E
:104EE0009C010020E3DA00081908010818BCBDE89D
:104EF000E08F000070B586B000228DF808208DF894
:104F00000C208DF81020444C90F83C20142302F023
:104F10000302A5784FF4B476012A23D0022A5FD089
:104F2000AA4211D010F8265F05EB051505EB4505E3
:104F3000B5FBF3F52570407800EB001000EB400066
:104F4000B0FBF3F06070A27004AA03A8CDE90002E0
:104F500001EB41004FF6FF7101EA400002AB6278BD
:104F600021781AE0AA4210D0858C05EB45056D0228
:104F7000B5FBF6F5A58090F8270000EB001000EBDC
:104F80004000B0FBF3F06070A27004AA03A8CDE962
:104F90000002C9B202AB62783CE008F0ABFA9DF8BF
:104FA00010209DF80C10D308BDF800209DF80800D3
:104FB00063F30402ADF800208A08BDF8001062F324
:104FC0004A11ADF80010C108BDF8000061F3CF2010
:104FD000ADF8000080B20090BDF8000006B070BDD2
:104FE000AA4210D0858C05EB45056D02B5FBF6F5A0
:104FF000A58090F8260000EB001000EB4000B0FB0D
:10500000F3F02070A27004AA03A8CDE90002CAB28E
:10501000217802ABA088C0E7F400002010B5084C4E
:10502000012020700748FEF778FF0028A06803D011
:10503000BDE810401CF098BCBDE810401CF088BCD6
:1050400080010020FC04002010B5044690F83E00CA
:10505000626B810707D4A18F39B1A1F57F43FF3B74
:1050600015D0491EA187A18F89B90AB181070ED534
:1050700021461348FEF7BBFFFFF7D0FFE16809B1F7
:10508000204688472046BDE8104014F0E3BDA16BE0
:105090004942E162002A11D0810702D4216B4942C2
:1050A000E1624110491C61F3410084F83E00616AED
:1050B000E069E1616062A06AA262606310BD000005
:1050C000FC04002070B5304D68681CF0E9FA064613
:1050D000687880F00100687047E00020287094F83C
:1050E0003E006978C0F380028A4242D061F38200B8
:1050F00084F83E00E16A8A19030719D4002917DCF5
:10510000002A15DBC00709D1216939B1204688473B
:10511000E1690144E161616A08446062A16809B122
:105120002046884794F83E0040F0080084F83E008E
:10513000E06A8019E06216D4A16A884200DDE1626B
:10514000A169204688470146206A884204D021622E
:1051500062680AB120689047D4E90A01814202DB03
:105160002046FFF771FF287818B10848FEF7D5FEF2
:1051700003E021460548FEF7E2FE0400ADD11CF035
:1051800095FA686070BD000080010020FC040020DA
:1051900070B5044640680D4608B1FFF7F9FF226874
:1051A000002A04D029462046BDE87040104770BD53
:1051B00089B20CF032BA89B20CF06BBA89B20CF039
:1051C0002CBA000030B591B005460C4668460BF08D
:1051D000C7FD002000950A9060420B9003480390A1
:1051E00068460BF031FE11B030BD0000E3B101089C
:1051F00010B50446406882080AD0496821F00301CE
:10520000091D08446060204600F045F8204610BDA6
:10521000FEE74068103120F00300884201D30120EE
:105220007047002070472DE9FC47054648680C464A
:1052300020F0030001AA69461DF01BFBDDE90070A8
:1052400005EBC71101EB80098046D9F83C0060B13D
:1052500064B1C4E9020504F10806C46030460421C3
:10526000FFF78CFD864202D0FEE7FEE7FEE7C9F8B5
:105270003C400120296900FA07F21143296105EB3E
:10528000870100FA08F04A6902434A6100F000B859
:105290000CBCBDE8F08710B5044600F08AF8046045
:1052A00010BD2DE9FC4706464FF000000D000090B0
:1052B0000746019042D00C46E9460DF104088029CA
:1052C00007D3084621F036FC411F01208840401ECC
:1052D00004444246494620461DF0CBFA009C0A2C65
:1052E0002CDA06EB8400019A40694FF0FF3101FA95
:1052F00002F210400CD1641C3069A14008401DD05E
:1053000021F010FC0446009006EB8000406978B163
:1053100021F008FC034606EBC411019001EB80006C
:10532000C76B5FB1786820F00300A84201D2FEE7A6
:10533000FEE739463046009A1EF0A5FD384600F0DB
:1053400000B80CBCBDE8F08710B50446FFF7A3FF1A
:10535000416841F002014160606840F00100606016
:1053600010BD10B5044600F024F8416821F0020198
:105370004160606820F00100606010BD70B50646B5
:105380000D46084600F015F8040010D02079C0073B
:105390000BD0686880080BD02146304600F03CF8FE
:1053A00021462846FFF724FF0546284670BDFEE744
:1053B000FEE7426800F1080122F00300001F0844E4
:1053C000910800D1FEE7704770B506460C004FF01B
:1053D00000001ED0F2B120791546C0071BD011463F
:1053E0002046FFF716FF78B12946204600F025F841
:1053F00005462046FFF74FFF6868294640F0020047
:1054000068603046FFF70FFF2046FFF7AAFF04F160
:10541000080070BDFEE7FEE77CB5054648680C460F
:1054200020F0030001AA69461DF023FADDE90023FC
:10543000214628461EF027FD7CBD2DE9F0410D4692
:10544000044600F10801281F0E18606806F10807DD
:1054500020F00300401BA0F1040838460421FFF7A8
:105460008DFC874200D0FEE7606820F0030108EB66
:105470000500001D814200D0FEE7307900F00300F6
:1054800040EA0800706020F003000C2800D2FEE71C
:10549000207900F00300284360603046FFF754FF96
:1054A0003046BDE8F08138B5044612F0BFFE05462F
:1054B00012F0F1FE0028204605D0218FE18617F07A
:1054C000DBFE012038BD11F055F8002820461ED023
:1054D00010F024FF218FE08E81420CD02087E08ED7
:1054E00000906A461C21204611F07EFA0128E9D17D
:1054F000204617F0C1FE284612F0D9FE0428E0D15C
:10550000204616F09DFA002111F00FFFD9E711F0A7
:105510008DF8D6E770B511F062FA054616F0D6FAA6
:10552000044628460CF00AFF01462046BDE87040BC
:1055300001221BF0AFBB00002DE9F04F0D4687B0F4
:105540000446002116F0B2F960B32946204600F067
:1055500075FA2946204600F077F80021204617F01A
:10556000E3F805900021204617F0B0F904900021DF
:10557000204616F0A5FF012800D00020804600211B
:10558000204617F03FFB07460021204617F016F88B
:1055900042F2D17906464F450BD1608C400508D4C4
:1055A000012707E007B0284600F046B81C2114F098
:1055B000BFBC0027204616F0F7F9DFF878A0834635
:1055C00020460021BAF8022017F0F0F9D5F810C0F3
:1055D000AB682968CDF800C0CDF80C80CDE9013169
:1055E000C2B239465846059B09F05AFE28834E45FB
:1055F00004D1608C800501D4012600E000262046FD
:1056000016F0B8F9074620460021BAF8062017F030
:10561000CDF9C2B2686900246B68E9688DE81B00A7
:1056200031463846049B09F03BFE688307B000F022
:1056300008B800006800002030BCBDE8C04FFFF78C
:10564000B5BF30BCBDE8C08F2DE9F34F81B00C462B
:10565000019809F083F80646019816F0A5F98246EC
:10566000304600F021FF2061400014F095FA2060E0
:105670002069400014F090FA002541F69A79A06064
:105680003AE036F91510DFF82081494533D100277B
:10569000DFF818B11FE03946019816F007F95946AE
:1056A000009017F022FBA8B9009809F069F80128CA
:1056B00010D1009809F05AF8A8420BD1009817F0C1
:1056C000C4FA4146404501DA084602E0009817F066
:1056D000BCFA80467F1C019816F0FAF8B842DAD876
:1056E000B8F1000F03DBA16821F8158003E0A16881
:1056F000002021F815006D1C2069A842C1D80025A2
:105700002F46284641F69B784B4615E036F9101097
:10571000414504DB0D44A5F5F8559B3D0BE099424E
:1057200004D1A16831F81010394403E0A26822F8CE
:10573000101039440FB2401C21698142E6D8002183
:10574000019816F0F1FF2169C1F1010200FB02A0EE
:10575000C01B00B2002800DA002000224FF0FF3307
:105760001146C44611E000BF36F9117067450BDBE6
:10577000A7F5F8579B3F3AB210FB02F3B3FBF5F3E2
:10578000A76827F811300B46491C27698F42EBD8D0
:10579000002B07DBA91A4143B1FBF5F1401AA168C0
:1057A00021F8130000F004B801E0FFFF010006003B
:1057B0001EBCBDE8E08F00002DE9F14F002211462C
:1057C000009818F049FC0021009816F0ADFE044640
:1057D0000021009817F08FF820440FFA80F900217B
:1057E000009816F04DFF20440FFA80F8009816F04C
:1057F0000DFE00EB090101EB0800DFF898A006B2EE
:105800005446009816F064F8074600252AE00098F0
:1058100021498068006850F82500834617F065FA32
:10582000F8B9584617F08AFD40BB0021584616F0DB
:1058300012FE18B3012821D002281FD003281DD042
:105840000021584617F0FAF958B9BBF81A10BBF8FE
:105850001600081A401C00B24844A04200DB04466F
:1058600024B26D1CBD42D2D3544504D004EB0800D1
:1058700000B2B04200DC304600F010B80098BBF92E
:105880001A10B0F91600081A411CA142E8DB0C46B8
:10589000E6E7000001E0FFFF0100040018BCBDE8DE
:1058A000E08F00002DE9F84F00228046114618F0E5
:1058B000BDFB0021404616F037FE0446002140465D
:1058C00016F0B0FF20440FFA80FA0021404616F08F
:1058D0004EFF20440FFA80F9404616F0A5FD00EB7C
:1058E000090101EB0A00DFF844B105B25C4640460D
:1058F00015F0EEFF07460021404616F0CCFD0128CA
:105900004FF0000644D078E0D8F808004849006815
:1059100050F82600009017F0E8F9C0BB009817F087
:105920000DFD50B10098B8F91810B0F91400091A1B
:10593000481CA0422ADB4C1C28E00021009816F0ED
:105940008AFD58B1032809D0062807D0082805D0B9
:105950000021009817F06BF958B118E00098B8F9D9
:105960001810B0F91400081A411CA1420EDB0C46B5
:105970000CE00098143000900BF05BFF5044A04204
:1059800004DB00980BF055FF00EB0A0424B2761CF0
:10599000BE42B9D35C453BD004EB090033E000BF05
:1059A000D8F808002249006850F82600009017F047
:1059B0009CF908BB009817F0C1FC60BB002100985F
:1059C00016F049FD38B3012825D0042823D0072834
:1059D00021D00021009817F031F968B900981430EF
:1059E00000900BF026FF4844A04204DB00980BF027
:1059F00020FF00EB090424B2761CBE42D0D35C45E4
:105A000006D004EB0A0000B2584501D0A84200DCE1
:105A1000284600F00FB80098B0F91810B8F9140033
:105A2000091A481CA042E6DB4C1CE4E701E0FFFF3A
:105A30000100040018BCBDE8E08F00002DE9F84F1C
:105A40000C46834609F0B4FA064600F02DFD60616D
:105A5000400014F0A1F860606069400014F09CF808
:105A6000002541F69A79E0603AE036F91500DFF852
:105A70000C81484533D10027DFF804A11FE03946E7
:105A8000584615F013FF5146009017F02EF9A8B9AB
:105A9000009809F017FB012810D1009809F008FBC5
:105AA000A8420BD1009815F0D0FF4146404501DADD
:105AB000084602E0009815F0C8FF80467F1C584653
:105AC00015F006FFB842DAD8B8F1000F03DBE16841
:105AD00021F8158003E0E168002021F815006D1C15
