:020000040800F2
:10000000B09E02209D020008632D0008AB2400086A
:10001000612D0008890600088534000800000000F2
:10002000000000000000000000000000A5320008F1
:100030008B06000800000000652D0008A7320008AC
:10004000B7020008B7020008B7020008B7020008AC
:10005000B7020008B7020008B7020008B70200089C
:10006000B7020008B7020008B7020008B70200088C
:10007000B7020008B7020008B7020008B70200087C
:10008000B7020008B7020008B7020008B70200086C
:10009000B7020008B7020008B7020008B70200085C
:1000A000B7020008B7020008B7020008B70200084C
:1000B000B70200082D330008B7020008B702000895
:1000C000B7020008B7020008B7020008B70200082C
:1000D000B7020008B7020008B7020008B70200081C
:1000E000B7020008B7020008B7020008B70200080C
:1000F000B7020008B7020008B702000800000000BD
:10010000B7020008B7020008B7020008B7020008EB
:10011000B7020008B7020008B7020008B7020008DB
:10012000B7020008B7020008B7020008B7020008CB
:10013000B7020008B7020008B7020008B7020008BB
:10014000B7020008B7020008B7020008B7020008AB
:10015000B7020008B7020008B7020008B70200089B
:10016000B7020008B7020008B7020008B70200088B
:10017000B7020008B70200080000000000000000FD
:10018000B7020008B7020008B7020008B70200086B
:10019000B7020008B70200080000000000000000DD
:1001A0000000000000000000B7020008B7020008CD
:1001B000B7020008B7020008B702000800F002F812
:1001C00000F05CF80AA090E8000C82448344AAF195
:1001D0000107DA4501D100F051F8AFF2090EBAE893
:1001E0000F0013F0010F18BFFB1A43F0010318476B
:1001F000A0A40200C0A402000A444FF0000C10F8B2
:10020000013B13F0070408BF10F8014B1D1108BF94
:1002100010F8015B641E05D010F8016B641E01F834
:10022000016BF9D113F0080F1EBF10F8014BAD1C84
:100230000C1B09D16D1E58BF01F801CBFAD505E0A2
:1002400014F8016B01F8016B6D1EF9D59142D6D3FC
:10025000704700000023002400250026103A28BF24
:1002600078C1FBD8520728BF30C148BF0B60704728
:100270001FB525F0D3FE1FBD10B510BD00F0D1F99C
:100280001146FFF7F5FF21F06DFC00F0EFF903B424
:10029000FFF7F2FF03BC00F0BDF9000009488047FA
:1002A00009480047FEE7FEE7FEE7FEE7FEE7FEE758
:1002B000FEE7FEE7FEE7FEE704480549054A064B70
:1002C000704700001D330008BD010008B03E022049
:1002D000B09E0220B05E0220B05E022053EA020C03
:1002E00000F069802DE9F04B4FF00006002B1FBF96
:1002F000B3FA83F503FA05F424FA05F65E4012BF5B
:100300001643B2FA82F502FA05F4C5F120051EBFC4
:1003100022FA05FC44EA0C04203556EA044C4FEA64
:10032000144418BF641C4FF000084FF000099042BD
:1003300071EB030C39D3002919BFB1FA81F701FA27
:1003400007F6B0FA80F700FA07F6C7F120071EBFDC
:1003500020FA07FC46EA0C062037B6FBF4FCA7EBB4
:100360000507103F07F01F0BCBF120060CFA0BFB23
:100370002CFA06F644BFB3460026202FA4BF5E46E3
:100380004FF0000B5BEA060C08BF4FF0010B19EBB6
:100390000B09ABFB027C48EB0608C01B06FB02CC3A
:1003A0000BFB03CC71EB0C01C1E70B460246414647
:1003B0004846BDE8F08B13B54FF000004FF0000148
:1003C000AFF30080BDE81C40704740EA01030246DD
:1003D00030B59B0710D14FF0013400E008C208C9C6
:1003E0001D1B9D4315EAC41FF8D013F0FF0102F84E
:1003F000011B0DD01B0AF8E711F8013B002B02F896
:10040000013B05D011F8013B002B02F8013BF3D171
:1004100030BD10B5431C02E010F8011B71B181071B
:10042000FAD14FF0013202C88C1A8C4314EAC2117F
:10043000F9D0C01A0A0603D0C01E10BDC01A10BDE4
:100440000A0401D0801E10BD0902FCD0401E10BD60
:10045000032A40F2308010F0030C00F0158011F8F0
:10046000013BBCF1020F624498BF11F801CB00F8C8
:10047000013B38BF11F8013BA2F1040298BF00F81C
:1004800001CB38BF00F8013B11F0030300F02580D9
:10049000083AC0F0088051F8043B083A51F804CB00
:1004A000A0E80810F5E7121D5CBF51F8043B40F8C6
:1004B000043BAFF30080D20724BF11F8013B11F8D1
:1004C00001CB48BF11F8012B24BF00F8013B00F815
:1004D00001CB48BF00F8012B704710B5203AC0F09F
:1004E0000B80B1E81850203AA0E81850B1E8185035
:1004F000A0E81850BFF4F5AF5FEA027C24BFB1E872
:100500001850A0E8185044BF18C918C0BDE81040E2
:100510005FEA827C24BF51F8043B40F8043B08BFEB
:100520007047D20728BF31F8023B48BF11F8012BB2
:1005300028BF20F8023B48BF00F8012B70474FF05E
:10054000000200B5134694469646203922BFA0E823
:100550000C50A0E80C50B1F12001BFF4F7AF09072F
:1005600028BFA0E80C5048BF0CC05DF804EB890020
:1005700028BF40F8042B08BF704748BF20F8022B63
:1005800011F0804F18BF00F8012B70474FF0013C6D
:1005900050F8042B51F8043B9A4221D1A2EB0C03F2
:1005A000934313EACC1317D150F8042B51F8043BB2
:1005B0009A4215D1A2EB0C03934313EACC130BD14F
:1005C00050F8042B51F8043B9A4209D1A2EB0C03DA
:1005D000934313EACC13DBD04FF00000704700BF09
:1005E000D01A01BAB1FA81F101F0180122FA01F032
:1005F000CB40C1F12001DBB2C0B2C01A2CFA01F32A
:10060000D11A914311EAC311E6D170477047704780
:100610007047000001491820ABBEFEE7260002002B
:100620007047754600F02CF8AE4605006946534603
:1006300020F00700854618B020B5FFF73DFEBDE865
:1006400020404FF000064FF000074FF000084FF039
:10065000000B21F00701AC46ACE8C009ACE8C009CA
:10066000ACE8C009ACE8C0098D46704710B5044637
:10067000AFF300802046BDE81040FFF708BE000041
:10068000004870474C3E0220FEE7704772B6FEE716
:100690007FB500204FF0844501240390C5F8204128
:1006A000C5F8A8010A2005F5967506F07BFBEC67F6
:1006B0004FF4FA7006F076FB03AE4FF47A750096AD
:1006C0000123A82270211748CDE9014500F0F6FA70
:1006D0009DF80C00112820D1009601239F22702143
:1006E0001048CDE9014500F0E9FA9DF80C002628F4
:1006F00013D19DF80D0018B1012801D002280CD1AA
:1007000000960123A32271210648CDE9014500F09E
:10071000D5FA9DF80C00642802D0012004B070BD09
:100720000020FBE71C0200202DE9F04F694E002459
:100730004FF00A0B307885B0401CC0B2B0FBFBF222
:100740000BFB1201DFF890812746307009B10A28AF
:100750007CD24FF001094FF47A7A04AA8DE804069E
:100760004B46022271215D4800F0A8FA9DF8101056
:1007700000296CD003296BD2FF208840C04340F091
:10078000C0004F46454688F810004FF0040903AA00
:1007900053488DE8040630F81420012371214F4896
:1007A00000F08CFA287C07FA04F1084267D04D4823
:1007B000817931B1012919D002292ED003295ED1C6
:1007C00047E09DF80C109DF80D0001F00F0100EBC3
:1007D000012105EB440001819DF80E209DF80F10CA
:1007E00002F00F0201EB0221818148E09DF80C200C
:1007F0009DF80D1002F00F02408801EB0221411A12
:1008000005EB440081819DF80E209DF80F1002F049
:100810000F0201EB0221018131E09DF80C209DF8CF
:100820000D1002F00F0201EB02210288511A05EBB4
:10083000440211819DF80E309DF80F1003F00F0354
:10084000408801EB0321401A908118E024E026E063
:1008500036E09DF80C209DF80D1002F00F0201EB20
:10086000022205EB44018A819DF80E309DF80F208D
:1008700003F00F03008802EB0322801A0881641C36
:10088000E4B2022C83D301272989002019B9A98950
:1008900009B98DF8100030709DF8100080B998F8F3
:1008A0001000010602D520F0800007E04FF6FF712E
:1008B000A8F80810A8F80C1000F0E00088F8100064
:1008C0003078F02801D986F800B005B0384600F03D
:1008D0000BB8000010000020140000201C020020B3
:1008E000686002086C03002030BCBDE8C08F0000C7
:1008F0002DE9F04FDFF82092002301260325A9F10E
:10090000040B85B00F2709F1040AABF1040EFBE0DC
:1009100006FA03FC12EA0C027ED00C7904F0030400
:10092000012C01D0022C20D1846800945C0005FACF
:1009300004F80494009C24EA08040094D1F80C8084
:10094000049C08FA04F8009C48EA0408C0F80880EF
:10095000446824EA0C0491F804C0CCF3001C0CFA9F
:1009600003FC4CEA040CC0F804C00C79E443A4076F
:100970000ED0C4684FEA430805FA08FC24EA0C04C8
:10098000D1F808C00CFA08FC4CEA040CC0F80CC002
:100990000C7904F00304022C15D1DC0800EB84046C
:1009A0000294246A4FEA437C4FEADC6807FA08FCA9
:1009B00024EA0C04D1F810C00CFA08FC4CEA040C30
:1009C000029CC4F820C004684FEA430805FA08FCFA
:1009D00024EA0C0491F804C00CF0030C0CFA08FC97
:1009E0004CEA040CC0F800C04C6814F4403F13D02B
:1009F0004A4CD4F860C04CF0010CC4F860C0246EBE
:100A000023F0030C04F001040094454C6444029468
:100A1000A4684FEA837C00E075E04FEA1C7807FA8F
:100A200008FC24EA0C04B0F1904F06D0DFF8F4C0C3
:100A3000604505D14FF0010C2EE04FF0000C2BE08B
:100A4000DFF8E4C0604502D14FF0020C24E0DFF88B
:100A5000DCC0604502D14FF0030C1DE0DFF8D0C0D0
:100A6000604502D14FF0040C16E0DFF8C8C06045C5
:100A700002D14FF0050C0FE0DFF8BCC0604502D199
:100A80004FF0060C08E0DFF8B4C0604502D14FF02B
:100A9000070C01E04FF0080C0CFA08FC4CEA040CBF
:100AA000029CC4F808C0D9F80040CC46D1F80480B4
:100AB00094435FEAC82800D51443CCF80040DAF824
:100AC0000040D446D1F8048094435FEA882800D5DA
:100AD0001443CCF80040DBF80040DC46D1F8048039
:100AE00094435FEA883800D51443CCF80040DEF820
:100AF0000040F446D1F8048094435FEAC83800D53A
:100B00001443CCF800405B1C0A6832FA03F47FF40B
:100B1000FFAE05B000F014B8080401400010024018
:100B2000000001400004004800080048000C004894
:100B3000001000480014004800180048001C00483D
:100B400030BCBDE8C08F0AB18161704781627047D7
:100B500001488068704700000000002090F84120A4
:100B6000202A24D190F84020012A20D0012280F8A8
:100B70004020242280F841200268136823F00103FA
:100B800013600268136823F48053136002681368CB
:100B90000B43136001680A6842F001020A602021D9
:100BA00080F84110002180F840100846704702206C
:100BB000704790F84120202A22D190F84020012A45
:100BC0001ED0012280F84020242280F841200268B3
:100BD000136823F0010313600268136823F4706341
:100BE00043EA0121116001680A6842F001020A60CB
:100BF000202180F84110002180F8401008467047FD
:100C00000220704770B5040004D094F8410000251C
:100C100010B106E0012070BD84F84050204600F07D
:100C200003F9242084F841002068016821F00101C3
:100C300001606068216820F0706008612068816848
:100C400021F400418160E0680128A06807D040F4E9
:100C5000044021688860E068022803D006E040F480
:100C60000040F6E721684FF4006048602068416862
:100C7000114A114341602068C16821F40041C160FC
:100C8000D4E904010843A16940EA01202168C86051
:100C9000D4E907010843216808602068016841F031
:100CA000010101606564202084F84100256384F817
:100CB0004250002070BD0000008000022DE9FF4F6F
:100CC00083B00446DDE9108790F84100DDF84890D4
:100CD0009A469346202874D15FEA080014D09FB149
:100CE00094F8400001286CD0012084F84000FFF700
:100CF0002FFF0646012200901923D103204601F060
:100D0000C1FC002871D103E04FF4007060646CE016
:100D1000222084F84100402084F8420000256564C8
:100D2000C4F8248067856563CDE9009653465A462A
:100D30002046049901F05CFC10B184F8405054E066
:100D4000618D3548FF274FF080784FF0007AFF29FA
:100D500004D927853A464346009005E0618D2185F8
:100D6000009094F8282053462046049901F072FC24
:100D70004B46002204212046009601F083FCA0BBD4
:100D80002068406A616A0870606A401C6062208D59
:100D9000401E81B22185608D401E6085608DD8B176
:100DA000D1B94B46002280212046009601F06AFC12
:100DB000D8B9608DFF2805D927853A464346009566
:100DC00006E026E0608D2085009594F828205346A3
:100DD0002046049901F03EFC608D0028C8D13246BF
:100DE0004946204601F07AFC18B1012007B000F016
:100DF00017B821682020C86121684A68074B1A404B
:100E00004A6084F8410084F8425084F84050002041
:100E1000ECE70220EAE700000024008000E800FE82
:100E200030BCBDE8C08F000030B5ABB00446142123
:100E300025A8FFF784FB94216846FFF780FB18493B
:100E4000206888422AD140200025009015956846E8
:100E500000F036F908B1FFF719FC124CE06C40F0D5
:100E60004000E064E06C00F040002A9000F00CF9D3
:100E70004FF4C04025901220CDE92605032028908C
:100E80000420299025A90848FFF732FDA06D40F401
:100E90000010A065A06D00F400102A902BB030BDAA
:100EA00000540040001002400018004802488168C9
:100EB00002781144816070470000002010B50024C2
:100EC000032000F071F80F2000F008F808B10124A9
:100ED00001E000F025F8204610BD000070B50E4E70
:100EE00005460024307898B14FF47A71B1FBF0F0E8
:100EF0000A490968B1FBF0F001F09AF840B9102DE9
:100F000006D200222946501E00F02EF8756000E03F
:100F10000124204670BD0000000000200C000020CD
:100F2000094808B5016E41F001010166016E01F04A
:100F300001010091816D41F080518165806D00F06B
:100F40008050009008BD000000100240002809DB1E
:100F500000F01F02012191404009800000F1E020D3
:100F6000C0F8001170470000F0B40E4B1B680C462F
:100F7000C3F30223C3F10705042D00D90425191D6D
:100F8000072901D2002300E0DB1E012606FA05F145
:100F9000491E214099409E40761E16403143F0BCC8
:100FA00002F071BA0CED00E0064900F00702086893
:100FB0004FF6FF03184040EA0220034A104308603E
:100FC000704700000CED00E00000FA052B492C4BA7
:100FD0000A6832214A432B4940B1B0F5007F0868C6
:100FE00029D020F4C06040F480602CE00868C0F391
:100FF0004120022804D051F8800F20F4807022E0B4
:10100000D1F8800020F48070C1F88000086820F4D6
:10101000C06040F400700860B2FBF3F0401C00E0D8
:10102000401E4A69520501D50028F9D1486940059A
:101030000AD503207047C0F34120022806D051F89A
:10104000800F40F48070086000207047D1F8800065
:1010500040F48070C1F88000086820F4C06040F45B
:1010600000700860B2FBF3F0401C00E0401E4A69CB
:101070005205DBD50028F9D1D8E700000C0000208C
:1010800040420F00007000400248416841F4007186
:10109000416070470070004008480168C1F3412179
:1010A000022906D0D0F88000C00505D54FF40070A5
:1010B00070474FF480607047002070470070004018
:1010C0002DE9F84F0446002700883E46010504F14B
:1010D0002008FE4D1ED5E06E40280AD003DC68B122
:1010E000202804D10FE0602821D080281FD00127BC
:1010F0000FE0E86840F48030E86018E00021201D2F
:1011000001F032FE03E00021404601F0C1FE07007D
:101110000DD03E462088C0042BD5206FB0F5007F4F
:1011200016D00DDCC8B1B0F5807F0FD11AE0D5F82C
:101130009C00E16E20F0E0000843C5F89C00E9E760
:10114000B0F5407F13D0B0F5806F10D001270FE0CD
:10115000E86840F48030E86009E00021201D01F0DB
:1011600003FE03E00021404601F092FE0746F7B17E
:101170003E46206880033AD5A86D4FF00008C000B5
:1011800009D4A86D40F08050A865A86D4FF0010803
:1011900000F080500090DFF838A3DAF8001041F436
:1011A0008071CAF80010FFF7D3FC814610E0D5F833
:1011B0009C00216F20F4E0600843C5F89C00D8E74C
:1011C000FFF7C6FCA0EB0900022801D9032705E0C0
:1011D000DAF80000C005F3D5002F7CD04FEA0706EF
:1011E000B8F1000F03D0A86D20F08050A8652078DA
:1011F000C00707D0D5F88800E16B20F00300084352
:10120000C5F888002078800707D5D5F88800216CBC
:1012100020F00C000843C5F888002078400707D567
:10122000D5F88800616C20F030000843C5F88800CC
:101230002078000707D5D5F88800A16C20F0C00001
:101240000843C5F888002078C00607D5D5F888007F
:10125000E16C20F440700843C5F8880020788006CF
:1012600007D5D5F88800216D20F440600843C5F803
:1012700088002088800507D5D5F88800616E20F4A5
:1012800040200843C5F888002088400507D5D5F8D8
:101290008800A16E20F440100843C5F8880020782B
:1012A000400607D5D5F88800616D20F4405008430A
:1012B000C5F888002078000607D5D5F88800A16D0C
:1012C00020F440400843C5F888002088C00509D5AF
:1012D000D5F8880000E027E0E16D20F440300843B5
:1012E000C5F888002068C00207D5D5F89C00216E9B
:1012F00020F003000843C5F89C0020884FF00067E9
:1013000080044FF0806850D5D5F88800616F20F0D8
:1013100040600843C5F88800606FB8423DD1E86876
:1013200040F48010E86040E0D5F8900010F4407080
:1013300015D0D4F89010814211D0D5F89000D5F88E
:10134000901020F4407041F48031C5F89010D5F829
:10135000901021F48031C5F89010C5F89000C007B6
:1013600011D0FFF7F5FB074641F2883907E000BFCF
:10137000FFF7EEFBC11B494501D9032630E7D5F83D
:1013800090008007F4D5D5F89000D4F8901020F4A0
:1013900040700843C5F8900022E7404505D101217F
:1013A000201D01F0E1FC00B10646206800032DD5A8
:1013B000A06F4FF480418842D5F89C0004D140F4DE
:1013C0008040C5F89C000BE020F48040C5F89C00EC
:1013D000D5F88800A26F20F040601043C5F888005F
:1013E000A06FB84203D1E86840F4801004E088425E
:1013F00004D1E86840F48030E86007E0404505D15A
:101400000121201D01F0B0FC00B106462068400318
:1014100017D5D5F88800E16F20F040600843C5F883
:101420008800E06FB84204D1E86840F48010E860BA
:1014300007E0404505D10121201D01F095FC00B1D8
:1014400006462088400413D5D5F88800D4F88010CB
:1014500020F040500843C5F88800D4F88000B0F16F
:10146000805F05D10221201D01F07EFC00B10646FF
:101470002068C00308D5D5F89C00D4F8841020F06B
:1014800004000843C5F89C002068800208D5D5F800
:101490009C00D4F8881020F018000843C5F89C0080
:1014A0002068C00110D5D5F89C0054F88C1F20F49A
:1014B00040100843C5F89C002068B0F5001F03D118
:1014C000E86840F48010E860304603E00010024015
:1014D0000070004000F000B818BCBDE8E08F0000CC
:1014E0002DE9F0470E4605004FF000077ED0DFF8EB
:1014F0007081D8F8000000F00F00B0420CD2D8F88C
:10150000001021F00F013143C8F80010D8F8000096
:1015100000F00F00B0427CD12878524C80070AD5E9
:10152000A868A16801F0F001884204D9A16821F0FF
:10153000F0010143A1602878C00749D06868DFF84E
:101540002891032810D0022814D00028206814D035
:10155000400500285DDA00F08FF8484516D9A068EC
:1015600010F0F00F0BD011E02068800151D501F090
:1015700023FDF2E720688003EBE78007E9E7A06836
:1015800020F0F00040F08000A0608027A06869682B
:1015900020F003000843A060FFF7DAFA814641F229
:1015A000883A08E0FFF7D4FAA0EB0901514502D9C7
:1015B0000320BDE8F087A068696800F00C00B0EB7C
:1015C000810FEFD1802F03D1A06820F0F000A06040
:1015D000287880070CD5A868A16801F0F00188423E
:1015E00006D2A16821F0F001014300E011E0A16002
:1015F000D8F80010404601F00F01B1420BD9016844
:1016000021F00F0131430160006800F00F00B0428B
:1016100001D00120CDE72878400705D5A068E9680A
:1016200020F4E0600843A0602878000706D5A06891
:10163000296920F4605040EAC100A06000F01CF865
:10164000A1680A4AC1F30311515C01F01F01C840AF
:101650000749086007480068BDE8F047FFF73EBC4F
:10166000002002400010024000B4C40428600208B8
:101670000C0000200400002070B525490023184606
:101680008A68CC6812F00C0204F00306214C4FEA81
:10169000640509D00C2A05D0042A32D0082A00D1CA
:1016A000284670BD012E10D10B681B0704D4D1F859
:1016B0009430C3F3032302E00B68C3F30313164E05
:1016C00056F82330DAB10C2AEBD1C86800F00300D9
:1016D000022818D0032818D01846CA68CB68C2F36D
:1016E0000312C3F306234343521CB3FBF2F2C86850
:1016F000C0F34160401C4000B2FBF0F070BD1846E2
:1017000070BD204670BD2046E7E72846E5E70000AB
:10171000001002400024F400386002082DE9F8436C
:1017200004006FD0FA4DA86800F00C06E86800F0DD
:1017300003072078C00664D576B10C2E01D1012FA5
:101740000AD0A069002828687AD040F001002860FB
:10175000FFF7FEF980465DE02868800702D5A069A2
:101760000028DED0216A2868000703D5286800F029
:10177000F00004E0D5F89400F02202EA1010814253
:1017800016D9084601F050FC00283BD1286840F0EB
:10179000080028602868216A20F0F00008432860CB
:1017A0006868E16920F47F4040EA0120686016E043
:1017B000286840F0080028602868216A20F0F000BE
:1017C000084328606868E16920F47F4040EA01200E
:1017D000686026B9206A01F027FC0028D5D1FFF700
:1017E0004BFFA968CB4AC1F30311515C01F01F0103
:1017F000C840C9490860C9480068FFF76FFB002866
:101800007ED12EE0CAE000BFFFF7A2F9A0EB0800EE
:10181000022876D828688007F6D5286840F00800A6
:1018200028602868216A20F0F00008432860686872
:10183000E16920F47F4040EA0120686011E0FFE7A1
:1018400020F001002860FFF783F9804606E000BF22
:10185000FFF77EF9A0EB08000228DAD82868800795
:10186000F6D42078C00740D0082E18D00C2E01D115
:10187000032F14D06068B0F5803F17D0B0F5A02FCB
:10188000286817D020F480302860286820F4802051
:1018900028606068E0B1FFF75BF9804614E02868D3
:1018A000800322D56068002878D01EE0286840F4C4
:1018B0008030EDE740F480202860F7E7FFF748F933
:1018C000A0EB08006428A4D828688003F6D50CE0B3
:1018D000FFF73EF9804605E0FFF73AF9A0EB080074
:1018E000642896D828688003F6D4207880073BD5F2
:1018F000042E11D00C2E01D1022F0DD0E06801E092
:10190000AEE1FFE0002828681ED040F48070286017
:10191000FFF71EF907460CE0286840050CD5E06883
:101920000028C1D008E000BFFFF712F9C01B022851
:1019300093D828684005F7D56868217C20F0FE40E0
:1019400040EA016068600FE020F480702860FFF7D3
:10195000FFF8074605E000BFFFF7FAF8C01B0228B2
:10196000B1D828684005F7D42078000729D56069E8
:101970000028D5F8940012D040F00100C5F894007A
:10198000FFF7E6F8074604E0FFF7E2F8C01B02287D
:1019900099D8D5F894008007F6D512E02BE120F015
:1019A0000100C5F89400FFF7D3F8074605E000BF33
:1019B000FFF7CEF8C01B022885D8D5F89400800721
:1019C000F6D42078400766D5A86D0027C00008D45B
:1019D000A86D40F08050A865A86D012700F08050E8
:1019E00000904F480168C90512D40168814641F44E
:1019F00080710160FFF7ACF8804605E0FFF7A8F8BA
:101A0000A0EB080002287DD8D9F80000C005F5D564
:101A1000A068012816D00528D5F8900017D020F02E
:101A20000100C5F89000D5F8900020F0040000BF38
:101A3000C5F89000A06841F28839C0B1FFF788F876
:101A400080460FE0D5F8900040F00100F0E740F04C
:101A50000400C5F89000F5E7FFF77AF8A0EB08015D
:101A600049454FD8D5F890008007F5D50EE0FFF72F
:101A70006FF8804606E000BFFFF76AF8A0EB0801A8
:101A800049453FD8D5F890008007F5D41FB1A86D1F
:101A900020F08050A8652078800628D5606A00284C
:101AA000D5F8980012D040F00100C5F89800FFF773
:101AB0004FF8074605E000BFFFF74AF8C01B0228B1
:101AC00020D8D5F898008007F6D510E020F0010066
:101AD000C5F89800FFF73CF8074604E0FFF738F830
:101AE000C01B02280ED8D5F898008007F6D4A06A4B
:101AF000F0B3022816D00C2E7DD0286820F080701C
:101B0000286000E0ABE0FFF723F80446AAE00000FD
:101B100000100240286002080C0000200400002091
:101B200000700040E868E26A00F00301914228D1A9
:101B3000216B00F0F00209011039914221D1626B52
:101B400000F4FE41B1EB022F1BD194F8382000F0D5
:101B50007841B1EBC26F14D1A18F00F4C0024908E3
:101B60004905A1F5001191420BD194F8401000E015
:101B70006EE04908490600F0C060A1F100718142A1
:101B80004FD00C2E77D02868400174D42868C0004C
:101B900071D4286820F080702860FEF7D9FF0646CF
:101BA00005E000BFFEF7D4FF801B022857D8286845
:101BB0008001F7D4F4E90B016FF00F0202EB011181
:101BC0000843218A5204490802EB4151A26841EAC4
:101BD00002210843217D4FF07E42490802EB41611A
:101BE0000843217B40EAC160E968244A1140084368
:101BF000E860286800E03EE040F080702860E86817
:101C000040F08070E860FEF7A3FF044605E000BFE7
:101C1000FEF79EFF001B022821D828688001F7D517
:101C200027E02868800124D4286840F0807028606C
:101C3000E86840F08070E860FEF78AFF044604E040
:101C4000FEF786FF001B022809D828688001F7D517
:101C50000FE000BFFEF77CFF001B022802D9032023
:101C6000BDE8F88328688001F4D4E8680449084096
:101C7000E8600020F4E70120F2E700000C809D01FD
:101C8000FCFFEEFE70B5040009D0606A002540B18B
:101C900025616561A56294F85D0040B10CE001200A
:101CA00070BD6068B0F5827FF4D0E561F2E784F83A
:101CB0005C50204600F056F8022084F85D00206851
:101CC000016821F040010160E1684FF4E062914257
:101CD00001D9002001E04FF48050B1F5706F02D0BF
:101CE000914200D0A562A188228901F4827102F498
:101CF00004421143227C02F002021143227D02F0D1
:101D000001021143228B02F400721143227F02F080
:101D10003802114394F8202002F080021143228DF2
:101D200002F40052114322681160A169042202EA00
:101D3000114194F8242000F4805002F01002114365
:101D400094F8342002F008021143A28902F4706270
:101D500011430143206841602566012084F85D003D
:101D6000002070BD10B586B0044614216846FEF709
:101D7000E6FB1349206888421FD11248016E41F4E6
:101D800080510166016E01F480510591C16C41F0F2
:101D90000101C164C06C694600F001000590E020BB
:101DA0000090022001900020029003200390052063
:101DB00004904FF09040FEF79BFD06B010BD000070
:101DC00000300140001002402DE9F05F044690F819
:101DD0005C0000270A9E1D4692468B464FF0010983
:101DE00001280ED0012084F85C00FEF7B1FE804689
:101DF00094F85D00616801280CD0B1F5827F07D1AD
:101E000002E0022000F011B9A16809B9042801D04C
:101E1000022700E1BBF1000F24D0BAF1000F21D05E
:101E200005B394F85D00042802D0052084F85D0015
:101E300000202066C4F840A0A4F84650A4F84450FE
:101E4000C4F838B0E587A587E0642065E0684FF402
:101E5000E061884201D8012D06D92068426822F449
:101E6000805205E00127D6E02068426842F48052A3
:101E7000426020680268520603D4026842F04002C1
:101E80000260E0688842606845D908B1012D3AD106
:101E9000A06B21680088C860A06B801CA063E08FE5
:101EA000401EE0872FE02068816889070FD5E18F09
:101EB00069B1B9F1010F0AD1A16B0988C160A06BAA
:101EC000801CA063E08F401EE0874FF0000920686F
:101ED0008168C9070FD0B4F8461061B1C068216CA1
:101EE0000880206C801C2064B4F84600401EA4F8D2
:101EF00046004FF00109FEF72BFEA0EB0800B042B0
:101F000001D3701C75D1E08F0028CCD1B4F8460005
:101F10000028C8D176E008B1012D6CD1E08F0128EE
:101F2000A06B08D921680088C860A06B801CA063E2
:101F3000E08F801E07E0216800780873A06B401CCA
:101F4000A063E08F401EE08755E020688168890724
:101F50001AD5E18FC1B1B9F1010F15D1E18F012976
:101F6000A16B07D90988C160A06B801CA063E08FBA
:101F7000801E06E009780173A06B401CA063E08F0F
:101F8000401EE0874FF0000920688168C90728D00B
:101F9000B4F8461029B3B4F84610012914D9C06822
:101FA000216C0880206C801C2064B4F84600801EE0
:101FB000A4F84600B4F84600012810D8206841680B
:101FC00041F4805141600AE0007B216C0870206C74
:101FD000401C2064B4F84600401EA4F846004FF0B0
:101FE0000109FEF7B5FDA0EB0800B04202D3701C5A
:101FF00001D018E0BEB1E08F0028A6D1B4F84600A9
:102000000028A2D142463146204601F047F810B1DF
:10201000012720202066012084F85D00002084F83C
:102020005C003846EEE60327F5E730BCBDE8C09F0C
:1020300010B5401EB0F1807F01D3012010BD4FF0DC
:10204000E02460610F21601701F01DFA0020A061FB
:1020500007202061002010BD7047704770470000C6
:10206000F0B590F83C20012A39D0012480F83C409A
:10207000022280F83D20026853689568194E1A4F75
:10208000B24201D0BA4204D123F4700C4B6843EA47
:102090000C0323F0700C0B6843EA0C0353600268D6
:1020A000B24210D0B2F1804F0DD0104B9A420AD0FC
:1020B0000F4B9A4207D00F4B9A4204D0BA4202D03B
:1020C0000D4B9A4204D1896825F080031943916031
:1020D00080F83D40002180F83C100846F0BD022009
:1020E000F0BD0000002C014000340140000400401D
:1020F00000080040000C00400040014010B5040002
:1021000003D094F83D0010B107E0012010BD00207D
:1021100084F83C00204600F023F8022084F83D00BB
:10212000211D206801F008F9012084F8480084F896
:102130003E0084F83F0084F8400084F8410084F8B1
:10214000420084F8430084F8440084F8450084F891
:10215000460084F8470084F83D00002010BD0000D0
:1021600008B501680B48B1F1804F0BD00A4A914283
:1021700007D1816D41F002018165806D00F00200A0
:10218000009008BD816D41F001018165806D00F016
:102190000100F5E7001002400004004090F83D10F7
:1021A000012901D001207047022180F83D1001680B
:1021B000CA6842F00102CA6000681149884211D021
:1021C000B0F1804F0ED00F4988420BD00E498842A3
:1021D00008D00E49884205D00D49884202D00D49E9
:1021E000884207D181680C4A1140062906D0B1F512
:1021F000803F03D0016841F0010101600020704779
:10220000002C01400004004000080040000C004089
:1022100000340140004001400700010070B5044651
:1022200090F83C000025012817D0012684F83C6076
:10223000022084F83D00226890682F4B184020F45B
:102240007F4090600868502838D00DDC20284FD09F
:1022500005DC90B3102811D14AE0022070BD30286F
:1022600046D040280AD13BE060282FD070280DD0FE
:10227000B0F5805F03D0B0F5005F12D0012584F87F
:102280003D60002084F83C00284670BDCB68D1E951
:102290000121206801F0B0F82068816841F07701E1
:1022A00009E0CB68D1E90121206801F0A5F8206898
:1022B000816841F480418160E1E719E0CA684968BA
:1022C000206801F0ABF85021206806E0CA68496830
:1022D000206801F0B4F86021206801F097F8CEE79B
:1022E000CA684968206801F099F840212068F4E73D
:1022F000226801461046F0E788FFFEFF704770B580
:102300000446006801694FF00005C943890715D4E8
:10231000C168C943890711D4E91E016101202077F2
:10232000206880698007204602D0FFF7E7FF04E0BD
:1023300000F0A7F8204600F0A5F82577206801698D
:10234000C943490717D4C168C943490713D46FF07B
:1023500004010161022020772068806910F4407F29
:10236000204602D0FFF7CAFF04E000F08AF82046BA
:1023700000F088F8257720680169C943090716D459
:10238000C168C943090712D46FF008010161042034
:1023900020772068C0698007204602D0FFF7AEFF93
:1023A00004E000F06EF8204600F06CF82577206815
:1023B0000169C943C90617D4C168C943C90613D402
:1023C0006FF010010161082020772068C06910F4C7
:1023D000407F204602D0FFF791FF04E000F051F863
:1023E000204600F04FF8257720680169C943C907E6
:1023F00008D1C168C943C90704D1891E01612046BB
:1024000000F042F820680169C943090609D4C1688F
:10241000C943090605D46FF0800101612046FFF72A
:102420001CFE20680169C943C90509D4C168C943B4
:10243000090605D46FF4807101612046FFF70CFE98
:1024400020680169C943490609D4C168C9434906DE
:1024500005D46FF040010161204600F025F82068A6
:102460000169C94389060BD4C168C943890607D4E9
:102470006FF0200101612046BDE87040FFF7EEBD1E
:1024800070BD70477047000010B50068054988426C
:1024900006D11EF0BBFEBDE8104001201EF02ABE92
:1024A00010BD0000000400407047FEE701688A6923
:1024B000D243920701D400228A6200688169C9432D
:1024C000C90703D0816941F00101816170470000B3
:1024D0002DE9F047044600688A46174681690025C1
:1024E0002E46C906A9464FF0200849D51021C161E2
:1024F00037E000BFBAF1FF3F33D0FEF729FBC11B25
:10250000514502D8BAF1000F2BD12068416894F8E8
:10251000422001F480418369DB431B041CD4B1F5E4
:10252000804F19D0202A17D0416841F48041416082
:10253000FEF70EFB07460FE0FEF70AFBC01B19284B
:102540000AD9606C40F02000606484F8418084F80F
:10255000429084F84090012520688069C04380063D
:10256000EAD420688069C043800602D5002DC1D01E
:1025700003E015B92168C1F81C8046F00406012566
:1025800021688869C20505D54FF4807246F00106BE
:10259000CA610125410509D522684FF4806146F0E2
:1025A0000806D1610125800502D40AE0800507D51F
:1025B00021684FF4007046F00206C861012500E072
:1025C0008DB12046FFF772FF54F8240B4168074A8B
:1025D00011404160206A3043206284F81D8084F8F5
:1025E0001E9084F81C902846BDE8F08700E800FEA5
:1025F0002DE9F84304461646DDE908971448984645
:10260000DAB200900023204600F024F83A4649460A
:10261000204600F089F8B8B9F5B2B8F1010F08D03A
:102620002168300A88623A464946204600F07CF824
:1026300050B9206885624B46002240212046009711
:1026400000F020F8002800D00120BDE8F883000049
:102650000020008010B5C1F3090141EA024102687F
:10266000029C19432143506821F000414FF48063DC
:1026700003EA5453024C234398430843506010BD6F
:10268000FF63FF032DE9F0411D4617460E46044641
:10269000DDF8188008E0681C06D0FEF759FAA0EBB8
:1026A0000800A8420BD855B12068806936EA0000BE
:1026B00012D00020B842EED00020BDE8F08154F8DE
:1026C000440F40F0200044F80409202060700020EE
:1026D000A07020700120F0E70120EBE770B51646EE
:1026E0000D4604460DE0324629462046FFF7F0FE2F
:1026F00008B1012070BDFEF72BFA801BA84207D855
:1027000035B120688069C0438006ECD4002070BDDC
:1027100054F8440F40F0200044F804092020607071
:102720000020A0702070E4E770B516460D46044600
:102730000FE0324629462046FFF7CAFE08B10120C5
:1027400070BD681C05D0FEF703FA801BA84207D8AD
:1027500035B120688069C0438007EAD4002070BD8D
:1027600054F8440F40F0200044F804092020607021
:102770000020A0702070E2E72DE9F047174C0746D3
:1027800000216088401E83B22088401E82B2084625
:1027900000F01CF912494FF40079C1F80090DFF8FD
:1027A00040808021A8F11008C8F8001000264FEAE8
:1027B000172A0CE0002506E0504600F063FDF8B251
:1027C00000F060FD6D1C2088A842F5D8761C60885A
:1027D000B042EFD8C8F80090BDE8F0876C03002045
:1027E000280800486F4910B50120C1F8980100F091
:1027F000DBF8112000F028F9782004F0D3FA362015
:1028000000F022F9482000F00FF93A2000F01CF9FE
:10281000552000F009F9F02000F016F9C32000F06F
:1028200003F9F02000F010F9962000F0FDF8B42034
:1028300000F00AF9012000F0F7F8B72000F004F9E1
:10284000C62000F0F1F8C02000F0FEF8802000F073
:10285000EBF8452000F0E8F8C12000F0F5F813206F
:1028600000F0E2F8C22000F0EFF8A72000F0DCF85A
:10287000C52000F0E9F80A2000F0D6F8E82000F0C2
:10288000E3F8402000F0D0F88A2000F0CDF80020D6
:1028900000F0CAF8002000F0C7F8292000F0C4F8C2
:1028A000192000F0C1F8A52000F0BEF8332000F098
:1028B000BBF8E02000F0C8F8D02000F0B5F8082000
:1028C00000F0B2F80F2000F0AFF8062000F0ACF8EE
:1028D000062000F0A9F8332000F0A6F8302000F020
:1028E000A3F8332000F0A0F8472000F09DF817204F
:1028F00000F09AF8132000F097F8132000F094F8F5
:102900002B2000F091F8312000F08EF8E12000F04B
:102910009BF8D02000F088F80A2000F085F81120FC
:1029200000F082F80B2000F07FF8092000F07CF81E
:10293000072000F079F82F2000F076F8332000F01F
:1029400073F8472000F070F8382000F06DF815207B
:1029500000F06AF8162000F067F82C2000F064F808
:10296000322000F061F8F02000F06EF83C2000F01A
:102970005BF8F02000F068F8692000F055F8782046
:1029800004F010FA212000F05FF8292000F05CF834
:10299000002000F079F8BDE810404FF6FF70FFF717
:1029A000EBBE00000080004210B507484FF4807471
:1029B0000460642004F0F6F9034810380460BDE8B0
:1029C0001040322004F0EEB9280800482DE9F0410B
:1029D000DFF8508007461C4615460E4698F80C0056
:1029E00000F032F8380A00F01FF8F8B200F01CF8D6
:1029F000280A00F019F8E8B200F016F898F80E006E
:102A000000F022F8300A00F00FF8F0B200F00CF8F5
:102A1000200A00F009F8E0B200F006F8BDE8F04145
:102A200000F022B86C03002070B506494FF4007422
:102A30000C60044D8021103D296000F023FC2C60C7
:102A400070BD00002808004810B506494FF4007416
:102A50000C6080220A6000F015FC02481038046007
:102A600010BD0000280800480148007AFFF7ECBFBD
:102A70006C03002010B50C46FFF7E6FFE0B2BDE89E
:102A80001040FFF7D1BF000014492A228A812B226F
:102A9000CA812C220A812E224A8110F003038B71F5
:102AA0004FF4A0724FF4F0700BD0012B0DD0022B1D
:102AB0000FD0032B11D108804A80E8213620FFF780
:102AC000D9BF0A8048804821F8E708804A80282139
:102AD000F4E70A8048808821F0E770476C03002003
:102AE00070B5044607484FF400750560054E802018
:102AF000103E3060200A00F0C5FBE0B200F0C2FBDF
:102B0000356070BD280800482DE9F04786B01421D3
:102B10006846FDF714FD3148C16C41F08001C16485
:102B2000C16C01F080010591C16C41F00101C164EB
:102B3000C16C01F001010591C16C41F00201C16459
:102B4000C16C01F002010591C16C41F00401C16446
:102B5000C16C01F004010591C16C41F04001C164F8
:102B6000C06C00F040000590FEF78EFADFF8708030
:102B70004FF48144002221464046FDF7E4FFDFF890
:102B800064904FF47076012231464846FDF7DBFF32
:102B90004FF4A0674FF0904A012239465046FDF7A6
:102BA000D2FF0125CDE90045002402946946404644
:102BB0000394FDF79DFE0096CDE901546946484611
:102BC0000394FDF795FE0097CDE901546946504600
:102BD0000394FDF78DFE06B0BDE8F08700100240BB
:102BE0000004004800080048134810B5114901606E
:102BF0001249416000210122C0E9021201614161D4
:102C00008161C1610162FDF7FDFF08B1FDF73EFD85
:102C100000210948FDF7A2FF08B1FDF737FD0021AB
:102C20000548FDF7C6FF002803D0BDE81040FDF7BA
:102C30002DBD10BD005400401C020020B175703045
:102C4000124810B5104901604FF4827141600021B3
:102C50004FF4E062C0E902124FF400720161C0E972
:102C600005121022C0E9072107224162C0E90A12B9
:102C7000016308214163FFF705F8002803D0BDE890
:102C80001040FDF703BD10BD003001407002002070
:102C900010B588B00024164800940194029403945F
:102CA000049405944FF08041069401607721C0E9B7
:102CB0000114611EC0E903148461FFF71FFA08B113
:102CC000FDF7E4FC4FF48050009069460848FFF798
:102CD000A5FA08B1FDF7DAFC049404A904480694A7
:102CE000FFF7BEF9002801D0FDF7D0FC08B010BDF9
:102CF000D402002010B588B0002418480094019434
:102D00000294039404940594134906940160772176
:102D1000C0E9011440F2E731C0E903148021816168
:102D2000FFF7ECF908B1FDF7B1FC4FF480500090CB
:102D300069460A48FFF772FA08B1FDF7A7FC049448
:102D400004A906480694FFF78BF9002801D0FDF787
:102D50009DFC08B010BD00000004004020030020CE
:102D6000FEE7FEE7704700002DE9F041434C0546C1
:102D70008846E06800268107286806D0E16801F0EF
:102D8000030181420FD170B11AE0012804D002285A
:102D900005D0032807D108E02168890701E02168F0
:102DA0004905002907DB012664E02168890302D474
:102DB00021684903F5E7E16821F003010143E1607F
:102DC000206820F080602060FDF7C2FE074604E026
:102DD000FDF7BEFEC01B022843D820680001F7D4CF
:102DE0006FF00F00B8F1000F1BD0B8F1010F24D025
:102DF000297D4908420502EB4161AA6841EA0221A6
:102E00006A6800EB0210014320691D4A104001432B
:102E10002161206840F080602060FDF799FE074640
:102E200021E0A9682A7B090241EAC2616A6800EBD5
:102E3000021001432069134AE8E7298A124A490827
:102E400002EB4151AA6841EA02216A6800EB0210D4
:102E5000014320690D4AD9E7FDF77AFEC01B02281D
:102E600001D9032606E020680001F5D52069A9698B
:102E7000084320613046BDE8F081000000100240A8
:102E80000F80FFF90F80FF070000E0FF0F809FFF1A
:102E90002DE9F041434C05468846E068002681074D
:102EA000286806D0E16801F0030181420FD170B1BA
:102EB0001AE0012804D0022805D0032807D108E031
:102EC0002168890701E021684905002907DB0126FF
:102ED00064E02168890302D421684903F5E7E168C9
:102EE00021F003010143E160206820F08050206060
:102EF000FDF72EFE074604E0FDF72AFEC01B022860
:102F000043D820688000F7D46FF00F00B8F1000FAD
:102F10001BD0B8F1010F24D0297D4908420502EBEE
:102F20004161AA6841EA02216A6800EB021001438C
:102F300060691D4A104001436161206840F0805083
:102F40002060FDF705FE074621E0A9682A7B0902FB
:102F500041EAC2616A6800EB021001436069134AEA
:102F6000E8E7298A124A490802EB4151AA6841EA76
:102F700002216A6800EB0210014360690D4AD9E73B
:102F8000FDF7E6FDC01B022801D9032606E02068F4
:102F90008000F5D56069A969084360613046BDE8E5
:102FA000F0810000001002400F80FFF90F80FF0742
:102FB0000000E0FF0F809FFF1748C16801F0030188
:102FC00001291AD0022914D0032914D00021C26883
:102FD000C368C2F30312C3F306234B43521CB3FB73
:102FE000F2F1C068C0F34160401C4000B1FBF0F05A
:102FF00070470A49EBE70A49E9E70168090704D481
:10300000D0F89410C1F3032102E00168C1F3031169
:10301000044A52F82110DAE7001002400024F400BC
:1030200000127A0038600208F8B51A4D06460024EE
:10303000A86DC00002D5FEF72FF80DE0A86D40F096
:103040008050A865A86D00F080500090FEF724F82D
:10305000A96D21F08051A965B0F5007F03D0802EC5
:1030600006D3022407E0802E05D9A02EF9D801E06E
:10307000702E00D101240848016821F00F0121437E
:103080000160006800F00F00A04201D00120F8BDEF
:103090000020F8BD0010024000200240F8B515469F
:1030A0000E460B460092044600224FF4C05100F039
:1030B00019F888B93346002280212046009500F097
:1030C00085F848B9334600224FF4C0612046009588
:1030D00000F008F8002804D0206E40F020002066A0
:1030E0000320F8BD2DE9FE4F4FF0000A9846174621
:1030F0000E4604460C9D8DF804A0FDF729FD411BEA
:10310000A8EB0105FDF724FD814620684FF4C06B54
:103110000C3002902A480068C0EBC00000EB800031
:10312000000D6843009043E05E4506D12FB9029838
:1031300000788DF804009DF80400B8F1FF3F37D007
:10314000FDF706FDA0EB0900A84203D215B10098D7
:1031500058B32BE02068416821F0E00141606068CD
:10316000B0F5827F0BD1A068B0F5004F02D0B0F56A
:10317000806F04D12068016821F040010160A06ADD
:10318000B0F5005F09D12068016821F400510160A9
:103190002068016841F400510160012084F85D005D
:1031A00084F85CA0032000F00DB80025401E0090BC
:1031B000206880683040B842B6D10020F3E70000B4
:1031C0000C0000201EBCBDE8E08F00002DE9F84394
:1031D0001E46914688460446089DFDF7B9FC401BF3
:1031E000351AFDF7B5FC074625480068C0F3CB301B
:1031F000684338E0701C37D0FDF7AAFCC01BA8421A
:1032000003D215B1009860B32CE02068416821F02A
:10321000E00141606068B0F5827F0BD1A068B0F535
:10322000004F02D0B0F5806F04D12068016821F012
:1032300040010160A06AB0F5005F09D12068016813
:1032400021F4005101602068016841F400510160DF
:10325000012084F85D00002084F85C000320BDE8B4
:10326000F8830025401E00902068816838EA01003C
:1032700004D000214945BDD10020F0E70121F9E744
:103280000C00002001B582B04FF6FF7000900123C2
:1032900001AA02A90248FEF797FD9DF804000EBDA1
:1032A000700200207047FDF701BE10B596B04421B2
:1032B0006846FDF744F9142111A8FDF740F90020F4
:1032C000FDF784FE08B172B6FEE7102001210090E0
:1032D000002406916020CDE907400220CDE90A01D3
:1032E0000C913C21CDE90D100F9010906846FEF72F
:1032F00015FA08B172B6FEE70F2011900320CDE950
:1033000012041494052111A81594FEF7E9F8002879
:1033100001D072B6FEE716B010BD00000248016889
:1033200041F470010160704788ED00E00148FEF74C
:10333000E6BF0000200300202DE9F0470268264B7D
:10334000264D274E274F284C4FF0804A984209D0EF
:10335000504507D0A84205D0B04203D0B84201D0B2
:10336000A04204D122F0700C4A6842EA0C02DFF855
:103370007CC0DFF87C80DFF87C9098420FD050450D
:103380000DD0A8420BD0B04209D0B84207D0A0421D
:1033900005D0604503D0404501D0484503D122F413
:1033A0004075CA682A434D6922F080022A430260B0
:1033B0008A68C2620A688262984207D0A04205D039
:1033C000604503D0404501D0484501D109690163FA
:1033D00001214161BDE8F087002C0140000400405C
:1033E00000080040000C0040003401400040014053
:1033F000004401400048014010B5846842EA0322BD
:1034000024F47F440A432243826010BD826822F084
:1034100070020A4342F007018160704710B5036AE9
:10342000046A24F001040462846924F0F00444EA8C
:10343000021423F00A020A438461026210BD10B52F
:10344000036A23F0100303628369046A23F4704360
:1034500043EA023224F0A00343EA011182610162CF
:1034600010BD000010B5FDF713F908B1012010BD23
:10347000034902484860002010BD000029070008E9
:1034800014000020FEE70907090E002804DB00F104
:10349000E02080F80014704700F00F0000F1E020F9
:1034A00080F8141D704770B5044600256FF02F0694
:1034B00008E02068411C2160007805EB850106EBDF
:1034C000410145182068007800F004F80028F0D188
:1034D000284670BD3038092801D8012070470020E7
:1034E0007047000010B54021074801F091F8002214
:1034F0001E2106481DF058FE054CA06002F0ECF8B5
:103500000020207010BD0000F80400208157000842
:103510009801002070B5B1F90030B2F90040A34223
:1035200000DC23460380B1F90250B2F90240A54203
:1035300000DD2C464480B1F90460B2F90450AE427B
:1035400000DA35468580B1F90610B2F906209142BD
:1035500000DB1146C1800120AB4201DC8C4200DD62
:10356000002070BDF8B50D460446B0F90000B1F971
:1035700000101646884247DBB4F90210B5F9022064
:10358000914241DBB4F90410B5F9042091423BDCCF
:10359000B4F90610B5F90620914235DC96B3ADF8C2
:1035A00000006088ADF8020032466946284600F007
:1035B00099F8002827D0A088ADF800006088ADF801
:1035C000020032466946284600F08CF800281AD0DE
:1035D0002088ADF80000E088ADF802003246694668
:1035E000284600F07FF800280DD0A088ADF8000034
:1035F000E088ADF8020032466946284600F072F8CD
:10360000002800D00120F8BD0020F8BDB0F900204E
:10361000B1F904309A4213DCB0F90420B1F900305A
:103620009A420DDBB0F90220B1F906309A4207DC6C
:10363000B0F90600B1F90210884201DB01207047A1
:1036400000207047F8B50D460446B0F90400B1F902
:1036500000101646884243DBB4F90600B5F90210A3
:1036600088423DDBB4F90000B5F90410884237DC2C
:10367000B4F90210B5F90620914231DC76B3ADF809
:1036800000006088ADF8020032466946284600F026
:1036900029F818BBA088ADF800006088ADF80200DA
:1036A00032466946284600F01DF8B8B92088ADF8C2
:1036B0000000E088ADF8020032466946284600F076
:1036C00011F858B9A088ADF80000E088ADF8020004
:1036D00032466946284600F005F808B10020F8BDDA
:1036E0000120F8BD2DE9FC4114460E46B1F9002039
:1036F000B0F9001005468A423ADBB5F9040082426F
:1037000036DCB6F90270B5F90220974230DBB5F924
:1037100006309F422CDC002C75DD401A9A1A401CA2
:10372000521C00B212B200EBD07002EBD272401009
:103730005210904200DB1046844200DD0446ADF892
:103740000010288800222044ADF804006888ADF8F5
:103750000200688831462044ADF806006846FFF74D
:10376000C1FF40B1BDF804002044ADF804003FE0C3
:103770000020BDE8FC81E8880022001BADF80200B3
:10378000E888ADF8060031466846FFF7ABFF28B180
:10379000BDF804002044ADF8040011E0A888002220
:1037A000001BADF80000A888ADF80400314668465B
:1037B000FFF798FF50B1BDF80000001BADF8000006
:1037C000BDF80200001BADF8020016E06888ADF8F5
:1037D0000200688800222044ADF8060031466846A1
:1037E000FFF780FF70B1BDF80000001BADF80000CE
:1037F000BDF806002044ADF80600314668461AF0D0
:10380000FBFFB6E7FFE70120B3E710B5B1F90040D1
:10381000B2F900309C4200DA23460380B1F902403D
:10382000B2F902309C4200DA23464380B1F90440E9
:10383000B2F904309C4200DD23468380B1F90610C2
:10384000B2F90620914200DC1146C18010BD000093
:10385000FEB507461DF044FC0025354C0646009594
:1038600037B1F868606038461DF06CFD606802E0B2
:1038700010F0B8FC606000691AF05AFF6068406997
:1038800008B11AF055FF6068C0691AF051FF60680E
:10389000006A1AF04DFF60680169E1B31BF0EEF9B0
:1038A0001BF06AF96068B0F8501199B30168097C9F
:1038B000890715D510F0F4FC401E07B2606810F0BF
:1038C000A9FC401E03B20022114601A800970EF089
:1038D00042FB606801A90268926B516004F01EFA15
:1038E00060684FF48071303016F00CFD6068202164
:1038F00000F5987016F006FD6068A0F8505130464B
:103900001DF0E8FB009060680068436A13B122680C
:103910000099984700E007E016F036FB00F036F813
:10392000BDE8FE4000F006B8A0F85051FEBD000012
:103930005400002070B50A4D002400BFC4EBC4063B
:1039400055F8260008B116F093FB05EB86001C2104
:1039500016F0D8FC641CE4B2042CEFD370BD000058
:10396000D4050020084949680AE04A68824202D02A
:103970000A68824203D10A7E42F001020A7649694E
:103980000029F2D170470000280000207047000095
:103990000421014800F03CBEEC0400201C21014839
:1039A00000F036BE040500202DE9FF5F0446DDE986
:1039B0000E0613B9B0F5807F7ED0B6F900504FF0F7
:1039C000FF376D42454307EB25252DB22580B6F91B
:1039D00002C0CCF1000C0CFB00FC07EB2C273FB223
:1039E0006780B6F900C0A1EB0C0141434FF0020C17
:1039F0000CEB212109B2A180B6F90280A2EB0802EA
:103A000042430CEB222000B2E080002B7ED04FF02E
:103A10000A0A93FBFAF5684200EB800003EB4007CB
:103A200005F1010928B21DF0D1FD00900FFA89F0CF
:103A30001DF0CCFD83465A3528B21DF0C7FD8046E7
:103A400009F15A0000B21DF0C1FD0146009AC7F10C
:103A50000A0000FB02F300FB08F00BFB073301FB3D
:103A6000070193FBFAF291FBFAF04FEA601AB4F9FE
:103A70000010B4F902000AFB01FCCDF80CC055118E
:103A8000378805FB10C207EBA2220FFA82F905FB6B
:103A900001F2BB46029277880AFB002107EBA121C5
:103AA0000BB2B4F90410BE460AFB01FC05FB10C2C0
:103AB0000BEBA22216B200E02FE005FB01F7CDE9E7
:103AC000007CB4F90680DDF80CC00AFB007005FB31
:103AD00018C1DDF804C0009F05FB18C5029A0AFB57
:103AE000087C0AFB08220BEBA1210EEBAC270EEBA6
:103AF000A02009B20EEBA2220BEBA5250FFA87FC42
:103B000000B212B22DB24F46494500E00EE000DA95
:103B10000F46B54216DAA84615E000202080491E5F
:103B20006080A180521EE28000F05EB832882A4494
:103B3000228072883A44628032881144A180718860
:103B400008444FE0B046474504DA4F46494506DA97
:103B50000F4604E0B54201DA2F4600E037462780E1
:103B60004F46494500DD0F46B54201DDA84600E05D
:103B7000B046474503DD4D46494505DC01E0B54209
:103B800001DD294600E03146A1809A4201DA15465E
:103B900000E01D46844501DA614600E001468D42A1
:103BA00005DA9A4201DA114606E0194604E0844536
:103BB00001DA614600E0014661809A4201DD11466A
:103BC00000E01946844501DD654600E00546A9424E
:103BD00005DD9A4201DD104604E0184602E0844506
:103BE00000DD6046E0809FE73FBCBDE8C09F2DE957
:103BF000FE4F0446D0F800B0B0F90800E589081A75
:103C0000B4F90A10511AD4E90932B5F5807F38D0D9
:103C1000A589ADB3A66B704345114E437011266B59
:103C2000E16A06FB05F701FB1077694306FB00100C
:103C300003EBA72902EBA02080460612B4F904008A
:103C40004FEA2927B8424EDD002F4CDBB4F90610AD
:103C5000B14248DD002E46DB94F834104A0745D5C2
:103C60008A0704F1140322D400FB067045004FF0CC
:103C7000020A0BEB05015246184616F0F9FA27E046
:103C80000DE0256BE66A05FB00F706FB117746435E
:103C900005FB016003EBA70902EBA000CCE7A56BD5
:103CA00068434D4303EB601902EB6510C4E700FB6A
:103CB000067000EB40054FF0030A0BEB05010222F2
:103CC000184616F0D5FAE81C584410F8010CA075F7
:103CD00094F83400C0071FD04FF4FC60ADF800002A
:103CE000A18A814218D1002000F02AB832B204F132
:103CF00018002369CDE90102002539B2AA468B4696
:103D000013F000FE0090BDF80000A082DDE9010282
:103D1000594613F08FFDDAE7E07C78B1A4F83C90C7
:103D2000A4F83E80A4F84070A4F84260656484F86A
:103D300048A0204600F007B800F00AB80120D3E7F9
:103D40001EBCBDE8E08F1EBCBDE8E04FFFF7F4BF2E
:103D50002DE9F04F044690F83C10D0F8009090F810
:103D60003E0087B04FF0FF36702907DAB4F94020E3
:103D70003546012A00D5002580310DE0902916DD59
:103D8000B4F94020B4F904300125521C9A4200DBFA
:103D90000025A1F27F114942C9B28846702809DA8C
:103DA000B4F94210012900D50026803010E000252A
:103DB000FF21F2E790280DDDB4F94210B4F9062096
:103DC0000126491C914200DB0026A0F27F104042F0
:103DD000C7B201E00026FF2760690090A07D059032
:103DE000002083468246049094F83400400744D56E
:103DF00094F84810606C11FB05014944022201A8A7
:103E000016F036FAA08894F8481010FB01F0616CA7
:103E1000022206FB0011494403A816F029FAA188E2
:103E200094F8480011FB00F1626C06FB012210FBC4
:103E300005901118022202A816F01AFA94F834001C
:103E4000800761D594F84800626C10FB052300EBF5
:103E500009010B4413F8013C0493A38813FB00F3FE
:103E600006FB0322114411F801BC10FB05001118D8
:103E700001EB090010F8010C45E0B4F84000B4F97A
:103E80004220284401B204F118008146236913F04E
:103E900039FD0190B4F84200B4F94010304402B248
:103EA00054F8103F484613F02DFD0390608E2368B0
:103EB000304402B2208E284401B2484613F022FD5D
:103EC000029094F82400103C80071DD5B4F94220DC
:103ED00034F8400F284401B2484613F0ABFC04907C
:103EE0006088B4F90010304402B2484613F0A2FCD6
:103EF00083466088304402B234F84009284401B255
:103F0000484613F097FC824694F8340042464546F2
:103F1000800735D5059810FB08F30499C8F1FF0018
:103F200011FB0031C1F307211BFB08F61AFB0060EF
:103F3000C0F3072011FB07F3C7F1FF0610FB0633A0
:103F40001B0AA375022907D8022803D8002007B04E
:103F500000F040B8002702E0022800D8FF270598AB
:103F6000022800D800220498022800D8FF22BBF1C2
:103F7000020F00D80025BAF1020F03D8FF2501E097
:103F8000FF20A075EAB1FF2A04D0DDE900010FF09F
:103F900007FD0090BDB1FF2D17D0DDE902102A46C4
:103FA0000FF0FEFC049097B1FF2F05D001463A4672
:103FB00000980FF0F5FC0090BDF80000A0820120F1
:103FC000C5E70198E5E70298ECE70398EAE7BDF852
:103FD0001000F3E730BCBDE8C08F00002DE9F047CA
:103FE0000446B0F908000A2700026062B4F90A002A
:103FF0000002A062B4F90C1091FBF7F5684200EBE7
:10400000800001EB4006684205F1010800B21DF096
:10401000DDFA8246E84300B21DF0D8FA8146C5F1C8
:104020005A0000B21DF0D2FA0546C8F15A0000B29B
:104030001DF0CCFAC6F10A0101FB0AF3024609FBA6
:104040000630694390FBF7F002FB061191FBF7F194
:104050004011E06248112063A07C13F000FD94F849
:10406000341060F3000184F83410A07C13F0E7FCF6
:1040700094F8341060F3410184F83410A07C0428D3
:1040800024D0052822D0062820D021F0040100BF2A
:1040900084F8341021682162A16921F0E00160F305
:1040A0000401A08860F39421E08860F35F51A1616E
:1040B000E0894FF4001101EB5001B1FBF0F0A06377
:1040C000FF20A075208AA082BDE8F08741F004019E
:1040D000DEE700002DE9F04115460E460746114C7B
:1040E0001CF0FEFF80462B4632463946204614F02F
:1040F00043F820B10020A062E06950B110E02C210B
:10410000204616F0FFF84FF00040A0620020BDE806
:10411000F08140461CF0DEFFE06108B90120E0615B
:104120002046F4E72805002010B51421074800F0C8
:104130006FFA13F0E7FF40B105490160054941609E
:10414000054981600549C16010BDFEE710050020EA
:10415000197B0108A17E01081F800108E57A01088A
:1041600070B50D4604461021284616F0CBF820689D
:104170000078012804D0022807D0042807D008E0DE
:10418000208A2880608A688003E0E06800E00A20D6
:10419000686020684268002A03D02946BDE8704064
:1041A000104770BDFEB5866A0446BEB9A08A218A52
:1041B0000844A082E08A618A0844E082204609F02F
:1041C000DFFF060079D020460CF062FA00220921B8
:1041D000304612F03BFE607880076ED4208A10B91A
:1041E000608A002869D00025ADF80450ADF8085069
:1041F00094F83C0000F00F000328304616D017F06A
:1042000015FE0746304617F0C7FC03460C20009009
:10421000B4F912103A46304609F05DFBADF80800DB
:10422000304617F00BFDC10712D017E017F092FDD2
:104230000746304617F02AFD024603200090B4F9E5
:1042400010103B46304609F046FBADF80400E7E7A6
:10425000BDF90410002901DDADF80450810705D433
:10426000BDF90410002901DAADF80450410705D466
:10427000BDF90810002901DDADF80850000705D48C
:10428000BDF90800002801DAADF8085002AA01A91A
:1042900020461EF0E2FE0023BDF90820BDF90410FF
:1042A000304619F0E3FDA08ABDF804100844A0824E
:1042B000E08ABDF808100844E082FEBD2DE9FC5FED
:1042C0000446806A5FEA000B71D094F83C00000756
:1042D0006DD014F00FFA019000684021457E5846D9
:1042E00018F052FD4FF0000818B9A4F81A80A4F88D
:1042F0001880584617F08CFD8246584617F08FFDFF
:10430000064694F83C004FF0640900F00F000C28BA
:1043100002D003284CD09AE0A4F8188056B1B4F922
:104320001A50002714F0E6F900684946407EC0F1B3
:10433000640022E0608BC5F1640110FB01F191FB88
:10434000F9F06083584617F027FC0546584617F0E9
:104350006DFD02460C200090B4F91A102B46584609
:1043600009F0B9FA6083024600231EE07A1917B2F9
:1043700010FB05F292FBF1F215B2002DF6D1ADF86B
:104380000070A4F81A806A46002120461EF065FEDF
:1043900041F6FF72BDF90030514258460AF05CF810
:1043A000BDF800100123084402B200214CE09AE05D
:1043B000A4F81A80BAF1000F0AD0B4F918500027F7
:1043C00014F098F900684946407EC0F1640022E08C
:1043D000208BC5F1640110FB01F191FBF9F0208302
:1043E000584617F053FC0546584617F0B3FC0346F1
:1043F00003200090B4F918102A46584609F06BFAC9
:104400002083014600231EE07A1917B210FB05F243
:1044100092FBF1F215B2002DF6D1ADF80070A4F8C0
:1044200018800022694620461EF017FE41F6FF72F2
:10443000BDF900305142584609F082FFBDF8001026
:104440000123084401B20022584619F00FFD208BC9
:10445000002848D1608B002845D1C6B9584617F0CE
:10446000E5FC0546584617F097FB002D06DC0028B2
:104470000DDD002D02DA01232A4604E0002806DAC9
:104480000123404202B20021584619F0EFFCBAF174
:10449000000F19D1584617F0F9FB0546584617F09A
:1044A00059FC002D07DC00280EDD002D03DA012366
:1044B0000022294605E0002806DA012300224042B6
:1044C00001B2584619F0D2FC0A215846019A12F05E
:1044D000BDFC6078800706D414F83C0F20F00F0074
:1044E000207044F8148C00F000B83CBCBDE8C09FBC
:1044F0007FB50E46040003D10FF074FE040023D0F4
:104500000025FEB1ADF80050ADF802500FF082FE6C
:10451000401EADF8040020460FF0C2FE401EADF86C
:1045200006006A46314602A8FEF7F4FF00280BD0C9
:104530002068017C890708D5DDE90001C4E90C0188
:1045400001202AE0A0F850517FBD82690AB102A97A
:10455000904700260BE000BF04EBC601002202A832
:104560003031FEF7FFFF0028EED1761CB6B2B4F86A
:104570005001B042F0D880B2202804D204EBC00031
:1045800002A9303004E0A4F8505104F1300069462B
:104590000DF038FCB4F85001401CA4F850016068DC
:1045A0000028D1D01CF0DAFE7FBD70B5054600F0C2
:1045B00012F804460CE02146284600F01EF8064694
:1045C0002146284600F071F8204615F051FD34468A
:1045D000002CF0D170BD002800D04068704700B5B5
:1045E00003460022FFF7F7FF03E01846521C00F0D5
:1045F00004F80100F9D1104600BD0068091D4058BB
:104600007047006840587047002800D080687047A5
:1046100000224260C91C21F00301826001607047E2
:1046200070B504460068083015F098FC050013D0FA
:104630000146002220461DF0ABFE29462046626856
:104640001DF0A0FE616819B12A4620461DF0A0FEAB
:104650006560A06800B9A560284670BD70B50446C5
:104660000068083015F07AFC050013D001460022DE
:1046700020461DF087FE29462046A2681DF088FED0
:10468000A16819B12A4620461DF07CFEA56060682D
:1046900000B96560284670BD28B1416809B98068D5
:1046A00008B1002070470120704770B504000DD09C
:1046B000FFF791FF00228842204608D1FFF79DFFB7
:1046C0006060011E01D000221EE0A26070BDFFF7F5
:1046D0009BFF8842206808440AD10168A16029B183
:1046E0002046BDE8704000221DF04CBE626070BDE7
:1046F00005682046FFF781FF064602462946204608
:104700001DF040FE2A4631462046BDE870401DF0AF
:104710003FBE10B50446006882680AB12146904742
:1047200020680068002801D02060F5E710BD80688F
:10473000002801D0B0F91600704700002DE9F047BD
:10474000074690B0408C189E40F004007884904654
:104750003A8499468A463289384618F081F90546E6
:10476000A7F8209032895146384618F079F9044666
:10477000788CA54220F00400788403D12904B1EBA1
:10478000044F68D0A7F8208032895146384618F087
:1047900067F905468046A7F82090514638460BF049
:1047A00053F8318900682A461BF004FC30896028E0
:1047B00023D147F6FF794D4501D04C451DD13846F0
:1047C00018F099FA00EBD0704510384618F093FABB
:1047D00000EBD0704010C84506D1691C431C9942BB
:1047E00000DA00E0194688464C4506D1691C421C97
:1047F000914201DA6C1C00E014461948FFF710FFE3
:1048000005002BD02F60C5E903843089A880684655
:10481000C5F808A00CF0D8FD1248FF21CDE90050E2
:10482000114802901148039000200790CDE908013B
:1048300030880A9070889DF83E1040420B90F068D6
:104840000690002060F300018DF83E10306905905D
:1048500068460CF05FFE10B0BDE8F087FEE7000090
:104860001C050020295A02081D5C0208795B020819
:1048700014210148FFF7CCBE1C0500202DE9FC5F88
:10488000002592468B4606462C46042743F60F0821
:1048900043F60E0900E100BFF16807EBC4000858B9
:1048A00082017DD480B230EA0B0212D05FF00002A8
:1048B00030EA0A000FD00020824271D051F8340053
:1048C00001AA41F6100100901BF05AF9002868D1A6
:1048D00003E00122ECE70120EEE701AA41F6110115
:1048E00000981BF04DF9002873D101AA41F612017E
:1048F00000981BF045F900286BD101AA41F613017D
:1049000000981BF03DF9002863D101AA41F615017A
:1049100000981BF035F900285BD101AA41F614017B
:1049200000981BF02DF9E0BB01AA41F26901009843
:104930001BF026F9A8BB01AA43F20C0100981BF05A
:104940001FF970BB01AA43F20D0100981BF018F982
:1049500038BB01AA41F2010100981BF011F900BB1C
:1049600001AA41F2040100981BF00AF9C8B901AA92
:1049700041F2020100981BF003F990B901AA41F23B
:10498000030100981BF0FCF858B901AA41F2050197
:1049900000981BF0F5F820B901AA41F2060101E0E8
:1049A00079E016E000981BF0EBF890B901AA41F20B
:1049B000320100981BF0E4F858B901AA414600986A
:1049C0001BF0DEF828B901AA494600981BF0D8F878
:1049D00010B1032000F068B801AA40F60A0100985F
:1049E0001BF0CEF8F0BB01AA40F60B0100981BF0BB
:1049F000C7F8B8BB01AA414600981BF0C1F888BBB4
:104A000001AA494600981BF0BBF858BB01AA40F622
:104A10003C0100981BF0B4F820BB01AA40F63D0110
:104A200000981BF0ADF8E8B901AA40F63A010098E9
:104A30001BF0A6F8B0B901AA4FF4046100981BF06E
:104A40009FF878B901AA40F6450100981BF098F844
:104A500040B901AA40F6410100981BF091F808B94D
:104A600001AA00E013E040F6420100981BF088F82C
:104A700068B901AA40F6430100981BF081F830B9EB
:104A800001AA40F6490100981BF07AF808B1022506
:104A900001E005B90125641C708CC0F3C500A0427B
:104AA0003FF6FAAE284695E73CBCBDE8C09F000043
:104AB0000148406870470000540000207047C0F370
:104AC0000410072800D907207047000010B51821EE
:104AD0000348FFF79DFD03490120087010BD000049
:104AE000C8040020C40100202DE9F04190460C4686
:104AF000050015D0FBF78DFC0A4F06462146BA6823
:104B0000284690470446BA6828194146904701460E
:104B1000701A03E06218AA5C2A55641CA042F9D2FC
:104B2000BDE8F081D80100202DE9F041094D904603
:104B30000E466A681C46074619469047306020B109
:104B400020686A68384400219047C8F80000BDE832
:104B5000F0810000D80100202DE9F04F87B08A468F
:104B6000DDE910581F4693460446002105B129800F
:104B70005CB12078002809D0BAF1000F05D00026DA
:104B800018F0060F15D0002004E0002007B000F058
:104B900063B8401C215C0A2904D00D2902D00029E9
:104BA000F7D100E0401C002DF0D04FF0FF312980FC
:104BB000ECE75FEA887001D541F6FF778946084641
:104BC0008DF81410049127E00498CDF8189068B37C
:104BD0004FF0000C05AA06ABCDF80CC0CDF8008054
:104BE000CDE9013220443B465A4651461CF018FD9F
:104BF00006997A1A314417B20EB288B10499014469
:104C0000049120780A280BD00D2809D0605C0A286E
:104C10000FD00D280DD00846205C08B1002FD3DC42
:104C2000049848B105B12E800498AFE74FF0010C0D
:104C3000D0E7481C0490F3E7064A04A920465268CE
:104C40009047002DF0D001460022504612F00BFA9A
:104C500006B2E8E7D801002030BCBDE8C08F0000F4
:104C60002DE9F0411746884606001ED0002F1CD0C3
:104C7000FBF7CFFB04463846FBF7CBFB050014D00F
:104C80000B4A2C444146926830469047411903E054
:104C9000621BB25C3255641EA142F9D930442A46E7
:104CA0003946BDE8F04115F0EFBABDE8F0810000EB
:104CB000D801002000230278232902D0012A0DD038
:104CC0000FE02AB10021012A04D0022A04D008E012
:104CD000012101E0017004E0017001E0202902D00F
:104CE0000123184670470221F6E72DE9F0410E46F0
:104CF000804602460021334608461CF0D3FE044697
:104D00000027401C15F02AF9050008D02F5533461E
:104D10004246611C1CF0C6FE2846BDE8F081FEE755
:104D20002DE9F0471E4614460D468246DDF82090D8
:104D300015E000BF4FEA540808FB065739465046B5
:104D40004A469047002808DD44F30000C0EB5404B5
:104D500007EB0605A4F1010401E005DA4446002C46
:104D6000E8D12046BDE8F0873846FBE72DE9FC5F37
:104D70009B460CAB8A468146DDE9116093E8121030
:104D8000DDE90F575FEA80784FF030031AD45EB147
:104D90005FEAC07808D000F00C0858EA0C0803D08D
:104DA000761E01E00B55641CBC4204D2202CF9D3C2
:104DB00001E00B55641C5FEAC07803D0B44201D215
:104DC000202CF6D35FEAC06825D55FEA40580AD4A4
:104DD0004CB1BC4201D0B44205D1641E03D0102DA9
:104DE00003D1641E04E0102D02D0022D0AD00EE083
:104DF000850603D4202C1ED2782506E0202C1AD25A
:104E0000582502E0202C16D262250D55641C202C5A
:104E100011D20B55641C202C0DD2BCF1000F01D017
:104E20002D2306E0430701D52B2302E0030702D51B
:104E300020230B55641CCDE900BAC84615468146AF
:104E40008B46AA46800714D1274607E02A46DDE9AB
:104E500000316D1C2020C446E0477F1CB742F5D3CB
:104E600007E02A466D1C641EDDE900311BF80400D2
:104E7000C047002CF5D15FEA897006D409E02A46C4
:104E8000DDE900316D1C2020C047A5EB0A00B042CF
:104E9000F5D3284600F000B83CBCBDE8C09F2DE922
:104EA000F04F8FB099468B46DDE91818DDE91C6399
:104EB000DDE91A4792468646002209B923F010031D
:104EC000580507AD00D5C9B1B1FBF4F004FB1010D3
:104ED000C0B20A2801D2303009E05FEA836C02D503
:104EE0004FF0410C01E04FF0610C60440A38B1FB17
:104EF000F4F1A854521C09B1202AE5D3CDF808805A
:104F0000CDE90563CDE90052CDE903474B46524652
:104F100059467046FFF72AFF0FB000F000B830BCCA
:104F2000BDE8C08F2DE9FF4F8FB01CACDDE92395A4
:104F300094E8030820AC94E8C004002450EA01027D
:104F400001D125F010056A050DF11C0802D550EAC3
:104F5000010217D032463B46FBF7C0F9D2B20A2A0B
:104F600001D2303206E0AB0601D5412300E06123D7
:104F70001A440A3A08F80420641C50EA010201D0DD
:104F8000202CE7D3CDE90084CDF808B0CDE9059514
:104F9000CDE9036A0FAF97E80F00FFF7E7FE13B004
:104FA00000F000B830BCBDE8C08F9A4200D28854EF
:104FB000704770472DE9FF4F89B005460A980024D5
:104FC0009246002800D1FE4D8FE1252804D02246CC
:104FD000641C53460A990BE2491C4FF0000808462E
:104FE0000C9101782B2919D004DC202919D0232910
:104FF00004D119E02D290ED0302909D00026C8B2DD
:10500000FEF768FAB0B10CA8FEF74DFA06461FE0AD
:1050100048F001010AE048F0020107E048F004010D
:1050200004E048F0080101E048F01001401C884607
:105030000C90D6E70C9908782A2809D1169840C810
:105040001690002E02DA48F002087642491C0C91B4
:105050000C984FF0000B01782E2919D1401C0C90B0
:1050600048F480680078FEF735FA20B10CA8FEF706
:105070001AFA83460CE00C9A10782A2808D1169860
:1050800002C81690002900DC0021521C8B460C92AD
:105090000C9801786C290AD004DC68290FD06A29A1
:1050A00019D128E0742929D07A2914D126E0401C8E
:1050B0000C90017848F480786C291CD00BE0401CDF
:1050C0000C90017848F08008682904D148F040012C
:1050D000401C88460C9002460078692822D015DCD6
:1050E00062281FD00DDC252871D050281AD05828EE
:1050F0007FF46DAF16E048F40071E9E748F4807181
:10510000E6E7632878D06428F2D10BE0732874D0E6
:1051100004DC6F2806D07028EAD103E0752801D09E
:105120007828E5D178280DD058280BD070280BD0DE
:10513000502809D06F2816D0622816D00A2128F0EE
:10514000100016E0102107E05078102148F488780C
:10515000562804D1521C0C921078582807D0107889
:10516000502804D006E0082109E0022107E048F0B9
:10517000200080461078692803D0642801D028F0E8
:105180000C085FEA485001D528F00108107869281A
:105190001ED064281CD0562864D05FEA885072D58F
:1051A000169804ABC01D002283E806080292CDE9E0
:1051B000076820F007005346F0E80212CDE900121C
:1051C0001690224628460A99FFF7ACFE89E00AE1CC
:1051D0005FEA885024D5169804AFC01D20F007035D
:1051E000F3E802021693002387E80A08CDE907686E
:1051F000002A03DA012102E080E0A6E0002100237A
:10520000029119461B1A914101DA114603E000216F
:10521000404261EB020153462246CDE90001D1E74D
:105220005FEAC85004D5169804C80FE0524215E052
:105230005FEA486003D5169810F8042B06E05FEA91
:105240000860F0D5169830F8042B12B21690CDE90C
:10525000021BCDE90468D00F002AE7DDCDE900206C
:1052600053461EE01698AAEB040202C8169048683E
:10527000006800900A980B6801192846FFF79AFE0B
:1052800004442FE0FFE75FEAC8500CD5CDE9021BCC
:10529000CDE9046816980021534604C8CDE90021E1
:1052A0001690224619E05FEA486003D5169810F878
:1052B000042B08E05FEA0860169803D530F8042B49
:1052C00092B200E004C816900020CDE90020CDE99C
:1052D000021BCDE904685346224628460A99FFF787
:1052E000DEFD04460C98401C0C900C9908780028B0
:1052F0007FF46BAE54457DD222467DE001275FEA04
:10530000887006D509E02246641C534620200A997D
:10531000A84738467F1CB042F5D316992246641C34
:1053200011F8040B169153460A99A8475FEA887052
:1053300006D4D7E72246641C534620200A99A84782
:1053400038467F1CB042F5D3CCE7169850F8049B42
:1053500016904B46BBF1000001D0014601E04FF032
:10536000FF31484600E0401C02780AB1491EFAD2DB
:10537000C71A5FEA485003D558465F4500D3074631
:105380005FEA887006D512E02246641C534620204E
:105390000A99A84738467F1CB042F5D307E000BF02
:1053A000224609F10109641C53460A99A84799F855
:1053B000000040B15FEA4851F2D5BBF1010B01E0BA
:1053C000B34F0008ECD25FEA887006D48AE7224621
:1053D000641C534620200A99A84738467F1CB042D7
:1053E000F5D37FE706E02246641C534625200A9940
:1053F000A84777E7AAF10102534600200A99A84777
:105400000DB0204600F000B830BCBDE8C08F10B52C
:1054100002004FF000000CD04B1E194200D0FEE7F6
:105420000A44521E9A43B2F5803F02D20C2A01D997
:10543000104610BD0C2010BD08444A1E401E90436B
:10544000114200D0FEE770472DE9F0410F460121DF
:105450000025044641862E460BE01B49FBF796F8D3
:1054600010B16D1CADB202E0608E401C6086761CEF
:10547000B6B257F8260010B101780029EDD1208E80
:10548000A8421ED0A06A002610B114F0F1FDA66259
:10549000E06A10B114F0ECFDE662E80014F05EFD85
:1054A000A06238B1680014F059FDE06218B1A16A39
:1054B00011B102E0FEE7FEE70025690014F022FFCB
:1054C0002586BDE8F0810000E02701082DE9F84FAE
:1054D0008146407A0F4600F00700022819D0104696
:1054E0008046974200DD3A46164603202A4C2B4A56
:1054F00000EB460020F00305A06811681035411A42
:10550000636805EB010C9C4505D2416821F0004120
:1055100024E00846E4E79D4219D892464FF0FF3B4D
:1055200048196168884210D9002269461C48CDF8A4
:1055300000B00BF075FC002269461A480BF070FCB5
:10554000A168DAF80000091AEAE7A068DDE7284652
:1055500014F004FDC0B1416841F0004188EA6702DF
:10556000416089EA02010160416801F04041491C43
:1055700031F0804141608681A0F80E8005D500F1B0
:105580001001816000F010B8FEE7A16801F110027F
:1055900029448260A160F5E75C000020B40100208E
:1055A0006FE10008810E010818BCBDE8E08F000023
:1055B00070B586B000228DF808208DF80C208DF88B
:1055C0001020444C90F83C20142302F00302A578EC
:1055D0004FF4B476012A23D0022A5FD0AA4211D018
:1055E00010F8265F05EB051505EB4505B5FBF3F552
:1055F0002570407800EB001000EB4000B0FBF3F0AA
:105600006070A27004AA03A8CDE9000201EB41007A
:105610004FF6FF7101EA400002AB627821781AE090
:10562000AA4210D0858C05EB45056D02B5FBF6F559
:10563000A58090F8270000EB001000EB4000B0FBC5
:10564000F3F06070A27004AA03A8CDE90002C9B209
:1056500002AB62783CE008F093FA9DF810209DF8C8
:105660000C10D308BDF800209DF8080063F3040275
:10567000ADF800208A08BDF8001062F34A11ADF8B9
:105680000010C108BDF8000061F3CF20ADF80000A4
:1056900080B20090BDF8000006B070BDAA4210D0E4
:1056A000858C05EB45056D02B5FBF6F5A58090F8F8
:1056B000260000EB001000EB4000B0FBF3F0207080
:1056C000A27004AA03A8CDE90002CAB2217802ABF5
:1056D000A088C0E70C01002010B5084C0120207004
:1056E0000748FEF778FF0028A06803D0BDE8104007
:1056F0001BF034BEBDE810401BF024BE9801002012
:10570000F804002010B5044690F83E00626B810753
:1057100007D4A18F39B1A1F57F43FF3B15D0491EB6
:10572000A187A18F89B90AB181070ED521461348F7
:10573000FEF7BBFFFFF7D0FFE16809B120468847BD
:105740002046BDE8104014F093BCA16B4942E162D1
:10575000002A11D0810702D4216B4942E162411035
:10576000491C61F3410084F83E00616AE069E1612F
:105770006062A06AA262606310BD0000F8040020AD
:1057800070B5304D68681BF0A5FC0646687880F05F
:105790000100687047E00020287094F83E006978A6
:1057A000C0F380028A4242D061F3820084F83E0056
:1057B000E16A8A19030719D4002917DC002A15DBCE
:1057C000C00709D1216939B120468847E169014400
:1057D000E161616A08446062A16809B120468847B6
:1057E00094F83E0040F0080084F83E00E06A80191A
:1057F000E06216D4A16A884200DDE162A169204618
:1058000088470146206A884204D0216262680AB152
:1058100020689047D4E90A01814202DB2046FFF765
:1058200071FF287818B10848FEF7D5FE03E021463D
:105830000548FEF7E2FE0400ADD11BF051FC6860A4
:1058400070BD000098010020F804002009B218F093
:105850003CBF70B5044640680D4608B1FFF7F9FF3C
:105860002268002A04D029462046BDE8704010472F
:1058700070BD89B20CF02BBA89B20CF064BA10B5C5
:105880000446406882080AD0496821F00301091DD6
:1058900008446060204600F045F8204610BDFEE751
:1058A0004068103120F00300884201D30120704786
:1058B000002070472DE9FC47054648680C4620F05B
:1058C000030001AA69461CF006FCDDE9007005EB47
:1058D000C71101EB80098046D9F83C0060B164B182
:1058E000C4E9020504F10806C46030460421FFF74C
:1058F000A3FD864202D0FEE7FEE7FEE7C9F83C4082
:105900000120296900FA07F21143296105EB87019B
:1059100000FA08F04A6902434A6100F000B80CBC82
:10592000BDE8F08710B5044600F08AF8046010BDA9
:105930002DE9FC4706464FF000000D000090074699
:10594000019042D00C46E9460DF10408802907D3A6
:10595000084620F047F8411F01208840401E0444BB
:105960004246494620461CF0B6FB009C0A2C2CDA25
:1059700006EB8400019A40694FF0FF3101FA02F210
:1059800010400CD1641C3069A14008401DD020F0AB
:1059900021F80446009006EB8000406978B120F0C1
:1059A00019F8034606EBC411019001EB8000C76BA8
:1059B0005FB1786820F00300A84201D2FEE7FEE75D
:1059C00039463046009A1DF07AF9384600F000B8A2
:1059D0000CBCBDE8F08710B50446FFF7A3FF416893
:1059E00041F002014160606840F00100606010BD5C
:1059F00010B5044600F024F8416821F0020141602E
:105A0000606820F00100606010BD70B506460D466C
:105A1000084600F015F8040010D02079C0070BD01C
:105A2000686880080BD02146304600F03CF82146DB
:105A30002846FFF724FF0546284670BDFEE7FEE72F
:105A4000426800F1080122F00300001F0844910899
:105A500000D1FEE7704770B506460C004FF000001D
:105A60001ED0F2B120791546C0071BD01146204642
:105A7000FFF716FF78B12946204600F025F80546C5
:105A80002046FFF74FFF6868294640F00200686033
:105A90003046FFF70FFF2046FFF7AAFF04F108008A
:105AA00070BDFEE7FEE77CB5054648680C4620F071
:105AB000030001AA69461CF00EFBDDE90023214624
:105AC00028461DF0FCF87CBD2DE9F0410D4604464A
:105AD00000F10801281F0E18606806F1080720F081
